:100000000C9499020C94B6020C94B6020C94B602AD
:100010000C94B6020C94B6020C94B6020C94B60280
:100020000C94B6020C94B6020C94BF280C9492293E
:100030000C945B230C94B6020C94B6020C94B6029A
:100040000C94B6020C94B6020C94B6020C94B60250
:100050000C94B6020C94E2230C94B6020C94B602F3
:100060000C94B6020C94B6020C94B6020C94B60230
:100070000C94B6020C94B6020C94B6020C94B60220
:100080000C94B6020C94B6020C94B6020C94B60210
:100090000C94B6020C94B6020C94B6020C94B60200
:1000A0000C94B6020C94B6020C94B6022378247811
:1000B000277828781E0F0500047F3F1F64321478CC
:1000C0003C1E1E140A052223252628292A2C2D2F02
:1000D0003032333536383A3B3D3E4042434547495E
:1000E0004A4C4E5051535557595A5C5E6062646693
:1000F00068696B6D6F71737577797B7D7F8183859F
:1001000087898A8C8E90929496989A9C9E9FA1A3A0
:10011000A5A7A8AAACAEAFB1B3B4B6B8B9BBBCBEC4
:10012000BFC1C2C3C5C6C7C9CACBCCCDCED0D1D240
:10013000D2D3D4D5D6D7D7D8D9D9DADADBDBDBDC42
:10014000DCDCDCDCDDDDDDDDDCDCDCDCDCDBDBDBEE
:10015000DADAD9D9D8D7D7D6D5D4D3D2D2D1D0CE4E
:10016000CDCCCBCAC9C7C6C5C3C2C1BFBEBCBBB953
:10017000B8B6B4B3B1AFAEACAAA8A7A5A3A19F9ED1
:100180009C9A98969492908E8C8A89878583817F99
:100190007D7B79777573716F6D6B6968666462607A
:1001A0005E5C5A5957555351504E4C4A4947454346
:1001B00042403E3D3B3A3836353332302F2D2C2AE3
:1001C000292826252322FFAA7F554000010203008B
:1001D0000101010101010101010202020202020208
:1001E00002020303030303030303040404040404DB
:1001F00004050505050506060606060707070707A1
:1002000008080808090909090A0A0A0B0B0B0C0C53
:100210000C0D0D0D0E0E0E0F0F0F101011111112EF
:100220001213131414151516161717181819191A6E
:100230001A1B1B1C1D1D1E1E1F20202122222324D1
:1002400024252626272829292A2B2C2D2D2E2F3010
:10025000313232333435363738393A3B3C3D3E3F24
:10026000404142434445464748494A4C4D4E4F5011
:10027000515354555658595A5B5D5E5F61626465CF
:100280006668696B6C6D6F7072737577787A7B7D59
:100290007E8082838587888A8C8E8F9193959698AD
:1002A0009A9C9EA0A2A3A5A7A9ABADAFB1B3B5B7C9
:1002B000BABCBEC0C2C4C6C9CBCDCFD1D4D6D8DBA0
:1002C000DDDFE2E4E7E9EBEEF0F3F5F8FAFDFF003D
:1002D000000000000000002A2B28000000000000A1
:1002E0000000000000000000000029000000002CB9
:1002F0001E3420212224342627252E362D37382758
:100300001E1F202122232425263333362E37381F63
:100310000405060708090A0B0C0D0E0F1011121325
:100320001415161718191A1B1C1D2F3130232D35C3
:100330000405060708090A0B0C0D0E0F1011121305
:100340001415161718191A1B1C1D2F3130354C00A7
:10035000000000000000000000000000000000009D
:10036000000000000000000000000000000000008D
:100370000000007E0F00D4FFFFFFC70000007810D0
:10038000036B006F00730061006D006500340000B6
:10039000001203730061006D00310064006100729F
:1003A00000650000000403090409025B000301006A
:1003B000A0FA090400000103010100092111010054
:1003C000012244000705810308000109040100021D
:1003D000030000000921110100012222000705820B
:1003E00003200001070503032000010904020001A6
:1003F0000300000009211101000122B60007058455
:10040000032000011201000200000008313A01003F
:100410000101010200010660FF0961A101096215E5
:100420000026FF009520750881020963150026FF4C
:1004300000952075089102C005010902A1018502FD
:100440000901A100050919012908150025019508D0
:10045000750181020501093009311581257F950259
:100460007508810609381581257F95017508810673
:10047000050C0A38021581257F950175088106C093
:10048000C005010980A101850319012AB7001501E2
:1004900026B700950175108100C0050C0901A10166
:1004A000850419012AA002150126A00295017510E4
:1004B0008100C005010906A1018506050719E0298B
:1004C000E715002501950875018102050719002926
:1004D000EF1500250195F075018102050819012924
:1004E00005950575019102950175039101C00501FE
:1004F0000906A101050719E029E71500250195085E
:10050000750181029501750881010507190029FF10
:10051000150026FF009506750881000508190129B8
:100520000515002501950575019102950175039149
:1005300001C011241FBECFEFDAE0DEBFCDBF11E056
:10054000A0E0B1E0E8E4FBE502C005900D92A63D15
:10055000B107D9F722E0A6EDB1E001C01D92A53F99
:10056000B207E1F70E944D110C94282D0C94000065
:10057000862B81110BC0443048F4E42FF0E0EE0FDD
:10058000FF1FE455FF4F85919491089581E090E01D
:10059000089581E008950E94C902089581E00895B8
:1005A00081E008950E94D002089508950E94D50226
:1005B0000895A6E0B0E0EFEDF2E00C94B22B498391
:1005C0005A839E833091DD0189819A8131111AC04D
:1005D0003E81311599F0211589F00E946208182F8B
:1005E000682F89819A810E94460869817A81812FCA
:1005F0000E945A0F2696E3E00C94CE2B0E945308DB
:10060000182FF3CF0E94620869817A81F1CFFC0133
:10061000262F4081518162817381848195810E945E
:10062000D9020895CF93DF93D82FC92F61E00E949C
:1006300007036D2F7C2F0E94CB02DF91CF9108958D
:10064000CF93DF93D82FC92F60E00E9407036D2F4F
:100650007C2F0E94D602DF91CF91089581E008950A
:100660000E942E030895CF93C82F0E9434078C2F29
:100670000E9430032FEF84E39CE0215080409040A3
:10068000E1F700C00000CF91089581E00E9433039C
:100690000E940624089580E00E9433030E941724DC
:1006A00008950F931F93CF93DF938C0161E00E9415
:1006B0000703EC01F801858181110E94FC17B80144
:1006C000CE010E942320811509F449C0B801CE0152
:1006D0000E94D202811509F442C0B801CE010E94E5
:1006E0003B1F8115E1F1B801CE010E94801A8115EE
:1006F000B1F1B801CE010E94551A811581F1B801FE
:10070000CE010E941C18811551F1B801CE010E9442
:100710007D1F811521F1F8018581811581F0CA3590
:10072000FCE7DF0739F178F4C130ECE7DE07F9F0D8
:10073000C330FCE7DF07C9F0C115DC4771F0C80121
:100740000E94CE020DC0CB35ECE7DE07B1F0CC3510
:10075000DC47A9F70E94AF0CF2CF0E94450380E06E
:10076000DF91CF911F910F9108950E94C00C0E94BC
:100770004B03F5CF0E94B80CE2CF0E94BC0CDFCF38
:100780000E943D230E94E4030E946F1608950E9478
:10079000E8030E946D170E944223089581E00895A6
:1007A0000895CF93DF93D82F0E94CE03C82F8115D1
:1007B00019F08D2F0E94D0038C2FDF91CF910895D7
:1007C00008950E94D103089580E00E94E1030895F6
:1007D0000E9478210E94E1030895CF930E9478211E
:1007E000C82F8091D8018C1779F0C093D8010E944E
:1007F000C7236093D9017093DA018093DB01909352
:10080000DC018C2F0E94E103CF910895ADE0B0E0B0
:10081000ECE0F4E00C94B32B488759876A877B8718
:100820008C879D8791110E94BB0B1F8286E0FE0181
:100830003896DE01119601900D928A95E1F78D812F
:1008400081110DC029813A814B815C816D817E814E
:100850008F810E94050B2D96E2E00C94CF2BCE01E8
:1008600001960E9412038111EDCFF5CFFC01848126
:10087000813021F4808191810E948B080895611557
:1008800029F00E94E61B0E94A71C08950E942F1CBD
:10089000FACFCF93C82F811599F08CEF8C0F813A46
:1008A00088F48C2F0E941C22811529F08C2F0E9425
:1008B000C1220E94510C8C2F0E94AA220E94510C2E
:1008C000CF91089580E28C0F883048F4C77081E0A2
:1008D00001C0880FCA95EAF70E949C0BEFCF8BE509
:1008E0008C0F833038F42C2F2452330BC9010E9413
:1008F000AE21E6CFE8E5EC0FEB3150F4F0E0EE0F7F
:10090000FF1FE05DFE4F808191810E94D421D8CFEE
:1009100083E38C0F8331A0F661E08C2F0E943F04AB
:10092000CFCF811581F19CEF980F913A28F40E9466
:10093000C1220E94510C089590E2980F983050F413
:10094000877091E001C0990F8A95EAF7892F0E947C
:10095000A20BEFCF9BE5980F933028F480E090E056
:100960000E94AE21089598E5980F9B3128F480E00D
:1009700090E00E94D421089593E3980F933118F4E6
:1009800060E00E943F0408950F931F93CF93C82FF8
:100990008B010E9449040115110539F48C2F0E9426
:1009A0009104CF911F910F9108958FE99FE00197D6
:1009B000F1F700C0000001501109EDCF60E570E0D3
:1009C000893311F060E070E00E94C404089581153D
:1009D00021F00E949C0B0E94510C0895811521F07A
:1009E0000E94A20B0E94510C0895A0E0B0E0EBEF32
:1009F000F4E00C94AD2B6C01D62FC72FFC011581B0
:100A0000068102950F700E94910BE82E8115F9F076
:100A1000E12E1115E1F08C2F807F803461F080E2AF
:100A20008D0F8830F0F08C2F807E803221F4D23010
:100A3000C0F00115B1F08091CD0282FF12C082E0BA
:100A40000E94820C0E94910B91E0E82EE926EC2F87
:100A5000E295EF70C03CB0F5F0E0E65DF24D0C942D
:100A6000962BE12CF4CF0C2F0F70C03110F00295B3
:100A7000007F111599F0011559F080E28D0F883033
:100A800010F0D11107C0802F0E949C0B0E94510CC6
:100A90008D2F51C0802F0E94AD0BF8CF8D2F0E945B
:100AA0009104011579F080E28D0F883010F0D1119A
:100AB00004C0802F0E94A20B03C0802F0E94B30BA2
:100AC0000E94510CE11489F00E948D0B80FD0DC035
:100AD000F60115820E94870B0E94B507C6010E948D
:100AE000FB060E94870B0E94C107CDB7DEB7E8E086
:100AF0000C94C92BFC2FFF70FF2EC07FC03219F061
:100B0000F29480EFF822D11541F0D130D1F11115D6
:100B100009F444C00115F1F0BBCF8091CD0282FDF4
:100B200015C0111559F0F11429F08F2D0E949C0B5E
:100B30000E94510C80E00E944904C4CF80E00E94D2
:100B40009104F11409F4BECF8F2DB4CF111569F0C3
:100B5000011104C08F2D0E94E704B4CF013009F0C9
:100B6000B1CF8F2D0E94D30BADCF0111ABCF8F2D05
:100B70000E94EE048F2D0E94DF0B8F2D0E94C20B6E
:100B8000A1CF111521F0063008F09CCFE3CF05303E
:100B900008F098CF8F2D0E94EE0494CF0115D1F369
:100BA000D93349F42FEF87EE93E0215080409040F5
:100BB000E1F700C000008D2F0E94910483CF8C2F9D
:100BC000869586958370811569F0813009F07ACF1A
:100BD0008D2F9C2F9370111102C080E090E00E9435
:100BE000D42170CF8D2F9C2F9370111102C080E003
:100BF00090E00E94AE2166CF612F8D2F0E943F04AE
:100C000061CF8C2F8370811134C0111124C04D2FFE
:100C1000429546954770440F440F8D2F8F70042ED8
:100C200001C0880F0A94EAF72D2F2071D4FF07C066
:100C30002FE030E001C0220F4A95EAF72095C695D3
:100C4000C695C370822BC23071F0C33079F0C130C9
:100C500039F00E9491070E9478210E94E10332CF6F
:100C60000E948B07F8CF0E949707F5CF0E94880754
:100C7000F2CF111539F1C0FFEECF4D2F42954695B9
:100C80004770440F440F8D2F8F70042E01C0880FC2
:100C90000A94EAF72D2F2071D4FF07C02FE030E02F
:100CA00001C0220F4A95EAF72095C695C695C370F4
:100CB000822BC23069F0C33071F0C13031F00E9434
:100CC000E307C9CF823038F2D8CF0E94DD07C3CF07
:100CD0000E94E907C0CF0E94A307BDCFCF701115B6
:100CE00039F08C2F0E94B5078D2F0E94E704B3CFF7
:100CF0008D2F0E94EE048C2F0E94C107ACCFD23FF3
:100D000041F170F4D03FC9F0D13F91F0111509F4D1
:100D100046C0011509F440C08D2F0E9449049BCFA5
:100D2000D33FF1F0D43F91F78091CD0282FD22C0F4
:100D30008C2F8F71111501F310C0111541F0053082
:100D400008F089CF8C2F8F710E94D10784CF063095
:100D5000F7CF8C2F8F711111CFCF0E94B5077BCFAA
:100D6000111529F08C2F8F710E94AC0774CF0E944F
:100D7000A80771CF111531F063E08C2F8F710E949D
:100D8000630C69CF81E00E94820C023008F463CFCB
:100D900082E00E94820C5FCF8C2F8F71DECF011515
:100DA00079F0D93349F4EFEFF7EE23E0E150F0406A
:100DB0002040E1F700C000008D2F0E9491044BCF2E
:100DC0008C2F8F7199CF0F931F93CF93DF93EC01EB
:100DD000688179818D810E9498088C010E94EF07BB
:100DE0000E948707B801CE010E94F504DF91CF91E0
:100DF0001F910F910895CF93DF93EC018C818115A2
:100E000099F0CE010E945103811111C00E94910BF3
:100E1000811551F08D81811539F08091CD0282FFCD
:100E200003C082E00E94820CDF91CF910895CE0131
:100E30000E94E306CE010E942003F6CF80E090E0FE
:100E40000E94AE2180E090E00E94D4210E94BB0B62
:100E50000E94510C0E94C41C0E94A71C08950E946D
:100E6000D8220E941E0708950E94AA0B0E942F07F5
:100E70000895282F92959F70963099F060F4925FB4
:100E80009F70923030F4203FB1F038F481E0283E7A
:100E900038F080E008959A5FF3CF81E0243FC9F7EE
:100EA000089591E0813F09F090E081E0283E08F04C
:100EB00080E0892B089581E00895FC0184818115EB
:100EC00039F0808191810E948B080E943907089532
:100ED00080E00895A6E0B0E0E0E7F7E00C94B32BE3
:100EE0002696E2E00C94CF2BA7E0B0E0EAE7F7E02B
:100EF0000C94B32B2796E2E00C94CF2B08950E941C
:100F00007E0708950E947F078093E2010895089567
:100F10000E94820708959091E201892B0E94820726
:100F200008959091E20189230E948207089590918B
:100F3000E20189270E94820708950E947E07089592
:100F40000E949D0708950E94A0078093E1010895E3
:100F500080E00E94A307089591E001C0990F8A954F
:100F6000EAF7892F0E94A307089521E030E001C02D
:100F7000220F8A95EAF78091E101822B0E94A30754
:100F8000089521E030E0A90102C0440F551F8A9561
:100F9000E2F7CA0180959091E10189230E94A3079D
:100FA000089521E030E001C0220F8A95EAF7809190
:100FB000E10182270E94A30708959091E101892B06
:100FC0000E94A30708959091E10189230E94A3073D
:100FD00008959091E10189270E94A307089508953B
:100FE0009B01677091E001C0990F6A95EAF763E091
:100FF000369527956A95E1F7B901660F771F260F99
:10100000371FFA01E20FF31F40E050E0682F70E055
:101010008191DF019B01042E02C0369527950A9429
:10102000E2F7217021952827292328272E934F5F47
:101030005F4F4330510561F708959C01A82FA770B9
:1010400083E0369527958A95E1F7C901880F991FA6
:10105000820F931FFB01E80FF91F40E050E080E092
:10106000219130E00A2E02C0369527950A94E2F7C6
:1010700021703327042E01C0220F0A94EAF7822B35
:101080004F5F5F4F4330510559F70895282F862F42
:10109000911108C0243030F4622F70E04EED51E021
:1010A0000E94F0070895282F892F911109C024303C
:1010B00040F46EED71E0822F90E00E941D080895CB
:1010C00080E00895A0E0B0E0E8E6F8E00C94AE2BF4
:1010D0007C010091E1018091E201082BC3E0D0E0A6
:1010E00010E0C8010C2E02C0959587950A94E2F78E
:1010F00080FD09C02197A8F7D12C8D2DCDB7DEB783
:10110000E7E00C94CA2BDC2EB7018C2F0E94660FEF
:10111000019781F3F2CFCF93DF93D82FC92F0E948D
:1011200062086D2F7C2F0E94660FDF91CF9108958A
:101130001F93CF93DF93162FD72F9091DD01911539
:1011400041F0862F972F0E948B08DF91CF911F913E
:101150000895811581F0862F972F0E946208C82F6D
:10116000682F812F9D2F0E944608612F7D2F8C2F85
:101170000E94660FEACF862F972F0E945308C82F30
:10118000F4CFE1E0F0E0DF0102C0AA0FBB1F6A95D7
:10119000E2F7BD01DF0102C0AA0FBB1F4A95E2F7CB
:1011A0006A2B01C0EE0F2A95EAF7962F9823961323
:1011B00002C08E2B0895E0958E230895242F462F8C
:1011C000682F8091E1010E94C1080E94A307089541
:1011D0000F931F93CF93E091E301C7E08091E40167
:1011E0008E1304C0CF911F910F9108950E2F10E020
:1011F000CE9FF0011124EB51FE4F208131814281BD
:1012000053816481758186810E947407F80131964B
:10121000E770E4CF20911D0230911E0240911F0221
:10122000509120026091210270912202809123024C
:101230000E947407089580912302803178F4809190
:101240002202811559F0E091E3012091E4013091EF
:101250001E0240911D0257E02E1301C008956E2F0B
:1012600070E05E9FF0011124DF01AB51BE4F149678
:101270008C911497811561F111968C9111978313BC
:1012800027C08C91841324C015968C9115978111D9
:101290001FC012968D919C91A0911F02B0912002C7
:1012A0008A1B9B0B883C910598F4809123028F70D8
:1012B000806180932302E551FE4F80818F708061B1
:1012C00080838DE192E00E94FB060E94E808089569
:1012D000FB013196E770C0CFE091E3019091E4010A
:1012E00027E0E91302C080E00895AE2FB0E02E9F02
:1012F000F0011124EB51FE4F3181361306C03081CD
:10130000381303C03581341304C0FD013196E770F2
:10131000E8CF81E008958F929F92AF92BF92DF92C3
:10132000EF92FF920F931F93CF93DF93CDB7DEB76A
:101330002D970FB6F894DEBF0FBECDBF8C0186E0AF
:10134000F801DE01189601900D928A95E1F7F801F7
:10135000F58084819DE1892E92E0992E9091210261
:1013600091111BC0811509F4FFC0F11409F440C1AB
:10137000C8010E945D07811509F43AC187E0F801B0
:10138000D40101900D928A95E1F7C4010E943604C0
:101390000E941B090E940A09E7C0E080A280B38076
:1013A000D090220220911F0230912002A501421B01
:1013B000530BD11409F4DBC0483C510508F0A6C01A
:1013C000811509F4D1C090911E0291808091230271
:1013D000803108F06BC0991228C090911D029E11B7
:1013E00024C0F1105DC08F708061809323020E9441
:1013F0000A098DE192E00E94FB0680912302F80128
:101400008683F12C8F2D2D960FB6F894DEBF0FBE7C
:10141000CDBFDF91CF911F910F91FF90EF90DF90A3
:10142000BF90AF909F908F900895F11039C040E029
:10143000692D8E2D0E946C0940E0692D8E2D0E9431
:101440006C09F82E8111DDCF888599850E948B0863
:10145000292F22952F70903450F49F70223080F005
:10146000911599F0F8019681903178F4CBCF2A5FED
:101470002F70223078F0C8010E94FB06FD2CC2CFED
:10148000911519F0811509F4BDCF805E883008F4FC
:10149000B9CFF1CF803F08F4B5CF815F8330F7CF6C
:1014A00080912302816080932302ABCF991207C001
:1014B00090911D029E1103C0F11409F479C0C80176
:1014C0000E945D07811509F493C0F11409F490C0DE
:1014D00080912302803288F020911D0230911E02FB
:1014E0003A832983BC82AB82909121029D831E8224
:1014F0008F83CE0101960E94FB0687E0F801ADE1E3
:10150000B2E001900D928A95E1F742CF90912302CB
:101510009031A0F4488559856A857B858C859D85A9
:101520000E946A078DE192E00E94FB0687E0F401C9
:1015300011928A95E9F70E940A0963CF8115A1F0FB
:1015400020911E0281812813BACF80911D028E1135
:10155000B6CFF110B4CF9683C8010E94FB0687E096
:10156000F40111928A95E9F7FF24F3944BCF483C9C
:10157000510508F041C08115B9F3F114C9F19091FA
:101580001E02818198132AC080911D028E1126C0EF
:101590008091230280FD19C08031B8F08683807F5E
:1015A000803F39F08681982F907F905F8F70892BD4
:1015B0008683C8010E94FB0687E0F801ADE1B2E036
:1015C00001900D928A95E1F7E5CE87E0F801ADE153
:1015D000B2E001900D928A95E1F7C6CFC8010E9452
:1015E0005D0781118ACF809123028160809323025D
:1015F000C8010E94FB06B8CF488559856A857B855E
:101600008C859D850E946A0791CFAEE0B0E0EBE04B
:10161000FBE00C94B22B288739874A875B876C875D
:101620007D878E87CE0108960E948B096C85811577
:10163000A9F0611541F0288539854A855B857D854E
:101640008E850E94740717E08091E3019091E40178
:1016500089133AC02E96E3E00C94CE2B87E0FE016E
:101660003896DE01119601900D928A95E1F7611589
:1016700051F3A091E4018A2F90E001968770992799
:101680002091E3012817190689F097E09A9FD0016D
:101690001124AB51BE4FFE01319601900D929A95E7
:1016A000E1F78093E4010E94E808CDCF0E9434075F
:1016B0001092E4011092E30187E0EDE1F2E0DF0136
:1016C0001D928A95E9F7BFCF189FC00111248B5155
:1016D0009E4F0E948B09811509F4BCCFE091E30174
:1016E0001E9FF0011124EB51FE4F20813181428178
:1016F00053816481758186810E9474078091E30122
:1017000090E00196877099278093E3019DCF8091A7
:101710004C02869586958695089580914C02877037
:10172000089590914C02977081E0911101C080E082
:10173000089580917802089590917802982B909363
:1017400078020895982F909580917802892380934C
:101750007802089510927802089590917702982B5C
:10176000909377020895982F90958091770289231E
:1017700080937702089510927702089508950E9449
:10178000BE0B089590914D02292F2823211531F089
:101790008095892380934D020E94BF0B0895089580
:1017A0000E94CF0B089590914E02292F28232817CD
:1017B00029F0982B90934E020E94D00B089590919F
:1017C0004E02292F2823211531F0809589238093FB
:1017D0004E020E94D00B089580914E02811529F08F
:1017E00010924E0280E00E94D00B0895CF93C091DA
:1017F000780280917702C82B80914E02811531F0DA
:10180000C82B0E94FA2181110E94EC0B8C2FCF91E2
:101810000895CF93DF93C0910601D09107010E94F4
:10182000F60B8883C0910601D091070148E050E093
:1018300064E472E0CE010E94792C892B59F088E093
:10184000FE01A4E4B2E001900D928A95E1F7CE0189
:101850000E948521DF91CF910895CF93DF93C091AE
:101860000401D09105010E94F60B8983C091040107
:10187000D091050140E250E064E272E0CE010E94A6
:10188000792C892B59F080E2FE01A4E2B2E00190AC
:101890000D928A95E1F7CE010E949021DF91CF91C0
:1018A000089580912F01811539F08091CC0287FF36
:1018B00003C00E942D0C08950E94090C08950895FC
:1018C0000E945F0C0895962F2091CD0222FF11C037
:1018D000682F660F660F660F692B60934C020E949B
:1018E000B50780914C028695869586950E94600C7E
:1018F00008950E94B507089510924C0280E00E945E
:10190000600C089590914C028095892380934C023D
:10191000282F277021110DC0891759F09091CD0201
:1019200092FF07C08695869586950E94C1070E9402
:101930007C0C08959091CD0292FB222720F9281764
:1019400069F080FB92F99093CD028091CC02909146
:10195000CD020E94E20C82E00E94820C08958091E8
:10196000CD02002482FF0394802D0E949A0C0895DA
:1019700081E00E949A0C089580E00E949A0C0895DC
:101980006FEF7FEF80E090E00E94D12C089580E01F
:1019900090E00E949D2C853E9E4F19F40E94B81F36
:1019A000089580E0089582E090E00E948F2C0895D1
:1019B00083E090E00E948F2C089584E090E00E94E4
:1019C0009D2C0895BC0184E090E00E94D12C0895E4
:1019D000AB01BC018FE090E00E94C52C0895AB01E3
:1019E000BC0183E190E00E94C52C089560E070E0A6
:1019F000CB010E94EF0C089560E070E0CB010E94E3
:101A0000E80C0E94F60C0895A8E0B0E0EAE0FDE0E2
:101A10000C94B32B65EE7EEF80E090E00E94D12C19
:101A200060E082E090E00E94B32C81E08093E201CC
:101A300061E083E090E00E94B32C60E074E184E018
:101A400090E00E94D12C60E086E090E00E94B32CF0
:101A500060E087E090E00E94B32C40E050E0BA01E3
:101A600088E090E00E94C52C60E083E290E00E9454
:101A7000B32C60E08CE090E00E94B32C60E08DE03D
:101A800090E00E94B32C19821A821B821C821D8254
:101A90001E821F82188648E050E067E170E0CE01A8
:101AA00001960E94A32C40E050E0BA018FE190E043
:101AB0000E94C52C80E00E94D11F0E9403200E943A
:101AC000FC0C2896E2E00C94CF2B0E94040D0895A4
:101AD000682F8EE090E00E94B32C0895A6E0B0E05D
:101AE000E4E7FDE00C94B12B0E94BB238C018091B4
:101AF000790290917A028017910779F019821A82FF
:101B00000E94BB23BC0149815A8180E090E00E9481
:101B1000060410937A02009379022696E4E00C946E
:101B2000CD2B0E94C7236093800270938102809323
:101B300082029093830260937C0270937D02809373
:101B40007E0290937F020895089508950E94A40D47
:101B5000089508950E94A90D08958BE590E10E94D3
:101B600064110E94A50D0E94A60D089581E00895BC
:101B700081E008950E94B60D0895089508950E9489
:101B8000BD0D0E94BE0D08950E94C70C811102C0B8
:101B90000E94650D0E94D30C809384020E94DD0C8C
:101BA0009093CD028093CC020E94D6180E94D80C4C
:101BB0000E9488078091E1010E94A00708950E9479
:101BC000B2230E9413200E94D9100E94C40D0E94CB
:101BD000E0030E9418170E94AA0D0895A6E0B0E045
:101BE000E4EFFDE00C94AE2B0E94B80D81110CC007
:101BF0000E946E0D0E94FD170E94E51C0E94ED03DD
:101C00002696E7E00C94CA2B0E94E51010917B0207
:101C100080E00E946510181759F38091840281FDBD
:101C20000E946B100E94BA0DD82E80E00E946510B1
:101C3000182F90917B02891731F1E82EE92600E0F8
:101C4000FF24F3948E2D8F218115B9F0D114A9F0C2
:101C500009831A820E94BB239C838B8381E08D833E
:101C600091E0812F8F21811101C090E049815A813B
:101C70006B817C818D810E9406040F5FFF0C043014
:101C800009F710937B020E94910DB4CF1F93CF935D
:101C9000DF930E946B0FEC01811522E5920708F09B
:101CA0005DC0811540E5940708F0DBC0803E9105DA
:101CB00028F58D3C910508F0ACC0883A910578F480
:101CC000853A910508F0A2C08130910509F441C020
:101CD0000497813A9105E8F1C0E0D0E03AC0885A13
:101CE00091094B97C8F7C85AD0E0CC0FDD1FCA59ED
:101CF000DE4F0990D881C02DD4642BC0811550E4EB
:101D00009507F8F4C11580E2D80708F0C0C0C83EB6
:101D1000D105F8F0CE019A9581159F41E8F68D2FF7
:101D20000E940C10182FCE0199270E946B0F212FB3
:101D300030E0322F2227E901CC27DF71C82BD92BC5
:101D400008C099270E946B0FCC27DF70C82BD92BB6
:101D5000D06ACE01DF91CF911F910895803842E57E
:101D60009407C8F5803652E5950708F05BC0C0348B
:101D700082E5D807D0F4C03292E5D90708F04BC00D
:101D80008C2F8695869520E2829FC0011124C37016
:101D900021E030E0A90102C0440F551FCA95E2F7C7
:101DA000EA01C82BD92BDD68D4CF8C2F8695869578
:101DB000877050E2859FC0011124C37021E030E09C
:101DC000A90102C0440F551FCA95E2F7EA01C82BCA
:101DD000D92BDC68BECF803C52E5950758F48F7153
:101DE000C03AD245A0F590E0982F8827EC01C46F47
:101DF000D06AAFCF805C9245809708F06DCFDC2F22
:101E0000CC27CC27DF71C06FD06AA3CFA497D06452
:101E1000A0CFD0659ECFCF71D0E0DC2FCC27C16F93
:101E2000D06A97CF86958695877020E2829FC00101
:101E30001124C37021E030E0A90102C0440F551FF6
:101E4000CA95E2F7EA01C82BD92BDA6882CF0E9443
:101E50000C10C82FD0E0DC2FCC27CC27DF71D0624C
:101E600078CF8F710E940C1053E0CC0FDD1F5A9574
:101E7000E1F7CC27DF70282F30E084FF04C050E169
:101E8000859F90011124C22BD32BD06962CF8D2F57
:101E90008F710E940C10182FCE0199270E946B0F92
:101EA000212F30E0322F222722273F71282B392B78
:101EB000E901D5CF462F711106C0643020F460E0EF
:101EC0000E947B19089580E090E008950E945A0FC7
:101ED0000E94460E08959C01803E910509F448C079
:101EE000D8F48133910509F47DC048F48932910515
:101EF00009F46DC08A9709F47CC0C901089589333B
:101F0000910551F18238910539F1C597B1F780916A
:101F1000CC0285FFF2CF29C0843E910509F447C069
:101F200048F4823E910599F1833E9105A9F121EE95
:101F300030E0E3CF863E910509F444C0873E910529
:101F4000E1F68091CC0283FD61C09091CD0291FFBA
:101F50002BC024EE30E0D1CF8091CC028370811170
:101F600052C08091CD0283FFC8CF29E230E0C5CFB7
:101F70008091CC0280FD33C09091CD0290FFBDCF07
:101F800023EE30E084FFB9CF20E030E0B6CF80917F
:101F9000CC0282FDF5CFB1CF8091CC0282FD30C062
:101FA0009091CD0290FD2FC084FFA7CFEDCF8091FF
:101FB000CD0281FFA2CF8091CC0227EE30E084FDDC
:101FC000E3CF9BCF8091CC0283FDF7CF96CF80915A
:101FD000CC0285FD1EC08091CD0283FF8ECF29E308
:101FE00030E08BCF8091CC0286FF87CF2AE230E0B1
:101FF00084CF8091CC0286FF80CF21E330E07DCF7B
:1020000022EE30E07ACF20EE30E077CF26EE30E0DF
:1020100074CF25E330E071CF9091CC0292FF10C0D5
:1020200041E0282F2471243009F040E031E0282FCE
:102030002871283009F030E0431711F02CE0822796
:1020400093FF10C041E0282F2471243109F040E0B3
:1020500031E0282F2871283109F030E0431711F0C2
:102060002CE082273091CD0230FF10C051E0282FA4
:102070002171213009F050E041E0282F28712830EB
:1020800009F040E0541711F029E0822731FF10C019
:1020900041E0282F2171213109F040E031E0282F63
:1020A0002871283109F030E0431711F029E0822728
:1020B00094FD877E089580E0089508950E945D1044
:1020C000089508950E9461100895E82FF0E0E1530B
:1020D000FD4F80810895089580EA8A95F1F708956B
:1020E00000C008950E946C100895F894E82FE295BE
:1020F000EF70F0E041A18F7021E030E0B90102C043
:10210000660F771F8A95E2F7CB01962F909594235F
:1021100091A392A1892B82A37894089584E90E94C7
:10212000751084EF0E94751085EF0E94751086EF80
:102130000E94751087EF0E94751008950F931F93EA
:10214000CF93DF93EC01062FF894549A5C9878941F
:102150000E947010ACE9B1E081E010E09D919F3FDA
:1021600079F0E92FE295EF70E05EF0E0208130E059
:102170009F7002C0359527959A95E2F7982F20FD1C
:1021800090E0192B880F91E0A03AB90739F784E95C
:102190000E94751061E0111101C060E0802F0E9463
:1021A0007210C00FD11D1883DF91CF911F910F9135
:1021B00008950E948E101092CF021092CE0281E0FC
:1021C0000E940A110E945E100895A1E0B0E0EBEEBB
:1021D000F0E10C94B22B198260E0CE0101960E94CE
:1021E0009E109091CE02898121E0981310C020E0CA
:1021F00041E06FEC72E08EEC92E00E940B11182F20
:102200000E946210812F2196E3E00C94CE2B8093E4
:10221000CE02EECF0895A0E0B0E0E1E1F1E10C9450
:10222000AD2BD82EE92EF62ED72F042FC22F211535
:1022300079F081E0809387020E94BB23909386020D
:102240008093850280E0CDB7DEB7E8E00C94C92B1F
:10225000C0908702C114B1F38091850290918602EB
:102260000E94D323059770F310E0A8016D2D7E2DF9
:102270008F2D9D2F0E94792C892B41F0A8016D2D67
:102280007E2D8F2D9D2F0E94862CCC2D10928702A3
:102290008C2FD9CF0E94EE0D08950E9454230E94E6
:1022A000AE250E94AD0D0E94C8250E94DF0D0E9440
:1022B000D5250E94DA250E944A110E94F4250E9429
:1022C0007E240E94BF0DF5CF9093D7018093D60155
:1022D0000895A0E0B0E0EFE6F1E10C94AD2B372FCC
:1022E000E82F71110FC0411521F0F0E0E153FE4FCE
:1022F000E4919E2F7E2F692F8E2FCDB7DEB7E8E0B9
:102300000C94C92BC62ED12CE72EF12C411521F0AF
:10231000F0E0E153FE4FE49146E0649FE0011124B8
:102320000FEF10E0CE01B8010E944C2BA601440F24
:10233000551F25E5269FC001279F900D1124481B9E
:10234000590B842F880F840FD801AE19BF09EA9F5B
:10235000A001EB9F500D1124252F389F70011124EF
:10236000EF2CFF24D801AE19BF097D01EE9DD001ED
:10237000EF9DB00D11247801E81AF108C701389FCC
:102380007001399FF00C1124EF2CFF240E191F0946
:10239000E09F7001E19FF00C11249F2D63307105C7
:1023A000C1F0CC3FD34060F461307105B1F06230D0
:1023B000710519F49E2FE52F2F2D7E2FE22F9BCF35
:1023C0006430710569F066307105B9F3952F2B2FD4
:1023D000F4CF2E2FE52F9B2FF0CF9E2FEB2FEDCF9D
:1023E000952F2E2FEF2DE9CF41E00E94691108951E
:1023F00008950E94F4110895CF93DF93982F762FBC
:10240000842FE901692F0E94F911798368838A83F7
:10241000DF91CF9108958091D002843028F48370A9
:1024200084608093D00208958C38E8F383708868C4
:10243000F8CF4F925F926F927F928F929F92AF925E
:10244000BF92CF92DF92EF92FF920F9388E090E0DD
:102450000E94972C6B017C0183E290E00E948F2CFC
:10246000282F30E040E050E060E070E080E090E055
:1024700000E20E94DA2B260137012C293529462952
:1024800057290F91FF90EF90DF90CF90BF90AF90C2
:102490009F908F907F906F905F904F900895A0E0F5
:1024A000B0E0E5E5F2E10C94AD2B8901D42FC52F06
:1024B0006B017C010E940B12A8016D2F7C2F88E01C
:1024C00090E00E94C52C98014D2F5C2FB601C701EA
:1024D00000E20E94F52B622F83E290E00E94B32C71
:1024E000CDB7DEB7E8E00C94C92BE0EDF2E0208137
:1024F00031814281538164817581868197810E94F7
:102500004F120895E0EDF2E085E0808311828FEFB5
:10251000828383831482758125E030E04FEF5FEF83
:1025200060E0868197810E944F1208958091D002C9
:1025300080FF03C086958695089580E00895809178
:10254000D002817008959091D402933018F49F5F67
:102550009093D402811591F02091D0023091D10254
:102560004091D2025091D3026091D4027091D50271
:102570008091D6029091D7020E944F12089581E077
:102580000E94A31208959091D402911519F09150D0
:102590009093D402811591F02091D0023091D10214
:1025A0004091D2025091D3026091D4027091D50231
:1025B0008091D6029091D7020E944F12089581E037
:1025C0000E94C31208958091D40208958093D4028A
:1025D000611589F02091D0023091D1024091D20250
:1025E0005091D3027091D502682F8091D6029091BC
:1025F000D7020E944F12089560E00E94E6120895EB
:102600008091D10208958091D20208958091D302E1
:102610000895CF92DF92EF920F931F93CF93DF93A2
:10262000CDB7DEB72C970FB6F894DEBF0FBECDBF87
:1026300060910B018091D00280FF3BC0EBECF1E098
:102640009E012F5F3F4FCE010D968901449150E0CE
:10265000DA01AA0FBB1FA40FB51FA852BD4FCD9022
:10266000DD90EC90D901CD92DD92ED929D013196F5
:10267000A817B90759F770E020910A0130E0C901A5
:10268000880F991F820F931FE091C501F091C60139
:10269000800F911F09952C960FB6F894DEBF0FBEE0
:1026A000CDBFDF91CF911F910F91EF90DF90CF9031
:1026B000089580910C0190910D01282F30E0F901CF
:1026C000EE0FFF1FE20FF31FE852FD4F891708F0CE
:1026D000B5CF1182108212828F5F3396F7CF90911F
:1026E000D00290FF11C090910C0150910D01292F43
:1026F00030E0F901EE0FFF1FE20FF31FE852FD4F2C
:10270000951718F00E94091308958183608342830E
:102710009F5F3396F5CFA3E0B0E0E1E9F3E10C94DD
:10272000B32B9091D00290FF0AC09E012F5F3F4FC4
:102730000E94FC114B8169818A810E946F1323964C
:10274000E2E00C94CF2BCF93DF93EC01EC81F0E02F
:10275000EA53FF4F4491E0EDF2E0628181810E94F3
:102760008B138C818F5F8C83DF91CF910895CF93F2
:10277000DF93EC01E0EDF2E0438162818C810E9405
:102780008B138C818F5F8C83DF91CF910895A3E0B1
:10279000B0E0EDECF3E10C94B12B8C018091880258
:1027A00081110AC09E012F5F3F4F4FEF6FEF0E94D4
:1027B000FC118A8180938802F8016481613049F0BC
:1027C0006230D1F08091880240E0611531F040E044
:1027D00015C06091880240E080E00E946F13F8010C
:1027E000848190E0019663E070E00E94602B848316
:1027F0002396E4E00C94CD2B4091880280E060E0C9
:10280000ECCFA3E0B0E0E7E0F4E10C94AC2B082FB0
:10281000E62EF42EB22E9091D00290FF2EC0292FDA
:1028200026952695E22FF0E0E056FE4F80818093BA
:10283000A7029C7F943029F59E012F5F3F4F802F88
:102840000E94FC114B8169818A810E946F13009361
:10285000D102E092D202F092D302B11471F0209131
:10286000D0026091D4027091D502302FA7018091DF
:10287000D6029091D7020E944F122396E9E00C9461
:10288000C82B823019F4F090D302E1CF863019F4CE
:102890000091D102DCCF8930D9F38231C1F6EEEE5E
:1028A000E20F2170C22EE695F0E0EA53FE4F14913C
:1028B000D12C60910E01D61618F00E940913C7CFD3
:1028C000D19EC001112470E00E944C2B802FC110BA
:1028D00013C0860F40910C014D0D5527551F9A01CD
:1028E000220F331F240F351F28523D4F4F2D6E2DC1
:1028F0000E94FC11D394DDCF861BECCF282FE0ED96
:10290000F2E0818143816281885F0E940114089511
:1029100081E00E947E140895282FE0EDF2E081818D
:102920004381628188500E940114089581E00E94D1
:102930008C140895282FE0EDF2E0628131E1630FFD
:1029400008F46FEF438181810E940114089581E0B2
:102950000E949A140895282FE0EDF2E0628131E19F
:10296000631B08F460E0438181810E940114089593
:1029700081E00E94AB140895282FE0EDF2E043813E
:1029800031E1430F08F44FEF628181810E9401140D
:10299000089581E00E94BC140895282FE0EDF2E034
:1029A000438131E1431B08F440E0628181810E9450
:1029B0000114089581E00E94CD14089520E00E9442
:1029C00001140895EF92FF921F93CF93DF93EC01D0
:1029D00010E0EE24EA94F12C60910E01161770F0CD
:1029E0000E9409138C819A8190FF25C08F5F8C8390
:1029F000DF91CF911F91FF90EF90089580910C018E
:102A0000810F9927991F9C01220F331F280F391F0F
:102A100028523D4F70E0C7010E94602B962F8C8199
:102A20004091D3026091D202199F800D11240E941F
:102A3000FC111F5FD1CF8150DACFCF9380910C0171
:102A400090910D01282F30E0F901EE0FFF1FE20FEA
:102A5000F31FE852FD4F891720F1C0E060910E018D
:102A6000C61728F10E9409138091080190918902EC
:102A7000980F9093890220910901280F2093090152
:102A8000121654F420910E012150330B092E001C14
:102A90000008921703061CF0819580930801CF91DE
:102AA00008951182108212828F5F3396D4CF2C2F1B
:102AB00030E070E0C9010E94602B90910C01980FEA
:102AC000892F90E040918902FC01EE0FFF1FE80F73
:102AD000F91F042E001C000824173005ACF04091AB
:102AE0000901042E001C0008421703066CF09F0128
:102AF00028523D4F4091D3026091D2028091D10281
:102B00000E94FC11CF5FAACFE852FD4F11821082C4
:102B10001282F8CFA0E0B0E0E0E9F5E10C94A52B3B
:102B2000FC016280448081E08483E6ECF0E07490F4
:102B3000E5E4F1E0E491C091D302C695C158D0E03C
:102B4000CC0FDD1FCD2FDD27812C75E0972EAA2419
:102B5000AA94B12C55245A94E719EE2EF12C8091A9
:102B60000E01881638F00E940913CDB7DEB7E0E1F8
:102B70000C94C12BC82CD12C83E0681658F4989C77
:102B8000F0011124E657FD4F8091D102808380919E
:102B9000D2028183411023C09C9CF0019D9CF00DCA
:102BA0001124E657FD4F1382128280910C018C0D87
:102BB0009D2D911D9C01220F331F280F391F285274
:102BC0003D4F9C9CF0019D9CF00D1124E657FD4F5C
:102BD0004281618180810E94FC118394C0CF9C9CC2
:102BE00080019D9C100D112406571D4FF801838113
:102BF0008115F1F081508383589EC00111246481B6
:102C000070E00E944C2BFB01FF27EA53FF4F849199
:102C1000E82FE7195E9EC0011124B7010E944C2BDA
:102C20008091D302689FB0011124F8017283BDCF57
:102C30000E945C2CB5010E94602B8C179D070CF044
:102C4000B4CFF3E06F1698F00E945C2CB5010E949F
:102C5000602BF80180830E945C2C2091D202269583
:102C6000622F70E00E94602B280FF80121839C9C4A
:102C7000F0019D9CF00D1124E657FD4F12828091CA
:102C8000D302893C58F088EC9C9CF0019D9CF00D8F
:102C90001124E657FD4F8483838387CF8431A0F7C7
:102CA00084E1F2CFE0EDF2E020812E7F20833181BC
:102CB0004281538164817581868197810E944F1280
:102CC0001092A8020E9409130895E0EDF2E08081BD
:102CD0008E7F80831092A8020E940913089510929B
:102CE000A8028091A50281110AC081E08093A5020B
:102CF0008091D00281708093A4020E94651608958D
:102D00006091D0026695669570E04BE050E08FE0F0
:102D100091E00E946C2C892B19F481E08093A80229
:102D20000E94BB2390939F0280939E0208959091EE
:102D3000D00290FF3AC08115C9F18332C8F58F7374
:102D4000282F220F220F8091D0028370282B2093EE
:102D5000D002611581F03091D1024091D2025091A0
:102D6000D3026091D4027091D5028091D6029091E5
:102D7000D7020E944F126091D0026695669570E06E
:102D80004BE050E08FE091E00E946C2C892B91F099
:102D90001092A80281E08093A1024091D302609139
:102DA000D2028091D1020E94DE14089581E0C8CF42
:102DB00082E2C6CF0E948016EDCF682F8091D002AC
:102DC000869586958F5F833208F081E00E94971682
:102DD000089581E00E94DD160895682F8091D00249
:102DE000869586958A9509F482E20E949716089541
:102DF00081E00E94ED16089561E00E949716089503
:102E0000E0EDF2E0808181608083869586950E9466
:102E1000FC1608958091D00280FF03C00E945216D4
:102E200008950E940017089560E00E949716089583
:102E30008091A60281113CC00E9419122093D002F9
:102E40003093D1024093D2025093D3026093D402C4
:102E50007093D5028093D6029093D7022430A0F4C9
:102E60000E9482120E9419122093D0023093D10244
:102E70004093D2025093D3026093D4027093D50250
:102E80008093D6029093D7020E940B121092A80250
:102E9000E091C301F091C40109958091D00280FFB7
:102EA00004C0869586950E94141781E08093A6023F
:102EB0000895E0EDF2E080818160808386958695BB
:102EC0000E94141708958091D00280FF03C00E94D1
:102ED000651608950E94591708951092A5028091D1
:102EE000A40281110E9459170E94801608950F9321
:102EF0001F93CF93DF938091A8028115C1F1809138
:102F0000A702E091D002E695E695E81BE093A002C7
:102F1000823091F5F0E0EE53FF4FE491CE2FD0E0F8
:102F200003EA13E18091A102811561F01092A102E0
:102F30000E94BB2390939F0280939E021092A30253
:102F40001092A2020E94BB2320919E0230919F0208
:102F5000821B930B8F3F9F4750F42C0F3D1F3093E4
:102F60009F0220939E028EE992E0F8010995DF917D
:102F7000CF911F910F910895863049F4F0E0E1540C
:102F8000FF4FE491CE2FD0E007EB13E1CBCF893098
:102F900051F4E695F0E0E454FF4FE491CE2FD0E0F9
:102FA00002EE14E1BFCF8F3049F4F0E0E754FF4F59
:102FB000E491CE2FD0E00DE115E1B4CF8C3139F49E
:102FC000E7EBF0E0C591D49107EC13E1ABCFC0ED96
:102FD000D7E008EF11E18D3109F0A4CF8E2F63E027
:102FE0000E94402BE92FF0E0EC54FF4FE491CE2FEC
:102FF000D0E00AE815E196CF08950E94771708956A
:10300000FA01811511F009950895FB01FCCFCF93CA
:10301000DF93C82FD62F0E9496128C1748F00E947B
:1030200096128D1728F40E94E916DF91CF9108952A
:103030008C2F0E94FC16F9CF1F93CF93DF93EC01E6
:10304000FB011581111163C00E94990B8272FE0170
:10305000E052F847E531F10508F059C0EA5CF24D5D
:103060000C94962B0E940A17812FDF91CF911F910C
:10307000089548EF56E169EE76E10E940018F4CF1A
:1030800049EE56E168EF76E1F8CF46E954E168E8A9
:1030900074E1F3CF48E854E166E974E1EECF48EB20
:1030A00054E167EA74E1E9CF47EA54E168EB74E17F
:1030B000E4CF4AED54E169EC74E1DFCF49EC54E12F
:1030C0006AED74E1DACF4FED52E16FEB72E1D5CFEB
:1030D0004FEB52E16FED72E1D0CF81E00E94FC1620
:1030E000C3CF65E082E00E940718BECF68E086E0AB
:1030F000FACF6EE089E0F7CF61E18FE0F4CF6BE1CA
:1031000082E1F1CF8CE1EACF62E28DE1ECCF11E018
:10311000ABCF539A08959C01FB014BB1477F5BB144
:1031200058606FB7F894CF01880F991F8E0F9F1FBB
:10313000820F931F2817390741F46FBF8FE594E082
:103140000197F1F700C000000895F90171919F0106
:10315000E8E05BB9000000C077FF4BB9770F0000D3
:1031600000C000C000C04BB900C0EA9591F7E2CFA3
:103170000E94C00C089580E00E946510817008953F
:103180000E94E5102FEF86E791E0215080409040AB
:10319000E1F700C000000E94E5100E94BB188115F5
:1031A00021F00E94B8180E94062408950E94C018B9
:1031B000089584E008950F931F93CF93DF93982F82
:1031C000942B9430F0F461111CC028E0829F8001A0
:1031D0001124040F111D040F111DC80188960E94AF
:1031E0008F2CC82FD0E0DC2FCC27C80189960E94F5
:1031F0008F2C9E01282BC901DF91CF911F910F9138
:10320000089580E090E0F8CF1F93CF93DF93962F3F
:10321000122F632F282F242B243098F4911111C0E2
:1032200098E0899FE0011124C40FD11DC40FD11D66
:10323000CE0188960E94B32C612FCE0189960E9400
:10324000B32CDF91CF911F910895CF93DF93D0E0FE
:10325000C0E04C2F60E08D2F0E94B8029C014C2FE3
:1032600060E08D2F0E940419CF5FC43091F7DF5FBB
:10327000D43071F7DF91CF910895EF92FF920F93C1
:103280001F93CF93DF938C01EA017A01E60EF71EBC
:10329000CE15DF0529F4CDB7DEB7E6E00C94CB2BD5
:1032A00080E00032110520F4C80188960E948F2C1E
:1032B00089930F5F1F4FECCFEF92FF920F931F93F5
:1032C000CF93DF938C01EA017A01E60EF71ECE154B
:1032D000DF0529F4CDB7DEB7E6E00C94CB2B003246
:1032E000110528F46881C80188960E94B32C2196A4
:1032F0000F5F1F4FECCF982F942B943028F461115F
:1033000003C00E94DB18089580E090E0089580E1FA
:10331000089588EB93E00895EF92FF920F931F9327
:10332000CF93DF938C01EA017A01E60EF71ECE15EA
:10333000DF0529F4CDB7DEB7E6E00C94CB2B083BD4
:1033400083E0180748F4C801885B9F4F0E948F2CC8
:1033500089930F5F1F4FEBCF80E0FACFEF92FF9280
:103360000F931F93CF93DF938C01EA017A01E60E4E
:10337000F71ECE15DF0529F4CDB7DEB7E6E00C94D5
:10338000CB2B083B83E0180730F46881C801885BC9
:103390009F4F0E94B32C21960F5F1F4FEACFCF9310
:1033A000DF93C8E4D0E060E0CE010E94B32C219608
:1033B000C11584E0D807B9F7DF91CF910895A8E04F
:1033C000B0E0E5EEF9E10C94AB2BF82E20E182178A
:1033D00008F067C08FEF93E00E948F2C811161C0CD
:1033E00008E410E0F11033C0FE0131965F0188E07F
:1033F00011928A95E9F76801FFEFCF1ADF0AC80139
:103400000E948F2C89831A82811509F44AC0813069
:10341000C1F4780122E0E20EF11CC6010E948F2C5B
:103420008A838115F1F19FEF980F9330E8F482E0E1
:10343000C80ED11CC7010E948F2C8B83811589F186
:103440001C8260E0C5010E946A1E8601D4CF01156E
:1034500084E0180731F1C8010E948F2C0F5F1F4FC5
:103460008111F5CFFA94BECF8430A1F402E010E0D0
:10347000C701EFEFEE1AFE0A0E948F2CF501E00F54
:10348000F11F8083811569F08C3731F4FE01E00F64
:10349000F11F12826701D5CF0F5F1F4F0730110553
:1034A00039F72896EAE00C94C72BCF93DF93EB0112
:1034B00086319C4719F50E94990B9D819115A1F0C9
:1034C0008A7A91E0811101C090E09093A902811560
:1034D00049F085E30E94AA220E94510C80E0DF910E
:1034E000CF91089589E2F6CF8091A902811521F04C
:1034F00085E30E94C122F0CF89E2FBCF81E0EFCFCC
:10350000CF93DF93EC01FB018581811509F4CFC0D6
:103510009E0130572332310508F0AFC00E94DD0C08
:103520009093CD028093CC02FE01E150F047E2324D
:10353000F10520F4E55BF24D0C94962B8091CC02C2
:1035400081608093CC0290C08091CD02886080938E
:10355000CD028AC08091CC028260F3CF8091CC02F0
:103560008460EFCF8091CC028860EBCF8091CD0258
:103570008160EDCF8091CD028260E9CF8091CC0255
:103580008061DFCF8091CC028062DBCF8091CC0262
:103590008064D7CF0E9434078091CC028068D1CF5D
:1035A0008091CC028C60CDCF8091CD028360CFCF53
:1035B0008091CC028E7FC5CF8091CD02877FC7CF0F
:1035C0008091CC028D7FBDCF8091CC028B7FB9CF13
:1035D0008091CC02877FB5CF8091CD028E7FB7CF0F
:1035E0008091CD028D7FB3CF8091CC028F7EA9CF09
:1035F0008091CC028F7DA5CF8091CC028F7BA1CF13
:103600000E9434078091CC028F779BCF8091CC02AF
:10361000837F97CF8091CD028C7F99CF8091CC0210
:10362000992782FF939590FB82F990FB83F989CFCC
:103630008091CD02982F909590FB80F990FB81F9B5
:1036400086CF9091CC02892F8F7B96FF806479CFB3
:103650000E9434079091CC02892F97FB87F98058FC
:1036600070CF81E00E94680D8091CC029091CD02D4
:103670000E94E20C0E94340780E0DF91CF91089510
:1036800080E0F0CF9091CC02892F8F7E94FF8061F3
:1036900058CF9091CC02892F8E7F90FF816051CFBF
:1036A0009091CD02892F877F93FF886050CF81E072
:1036B000E4CF282F35EB2303C001112497FF04C06A
:1036C00080589109892F089580589F4FFBCF809192
:1036D000B00280FF0DC060911F0170E0660F771F80
:1036E00060387105B0F561157105A9F1862F08954F
:1036F00081FF07C060911F0184E0689FB001112421
:10370000EFCF82FF04C060911F0188E0F6CF909157
:10371000AF029115D9F020911E0180911F01682FF1
:1037200070E0921730F043E0660F771F4A95E1F79B
:10373000D7CF899FC001112433E0880F991F3A9594
:10374000E1F7622F70E00E94602BCACF68E070E062
:10375000CDCF8FE7089581E008958091B00280FF7A
:103760000CC060911B0170E0759567957595679524
:103770006115710549F1862F089581FF06C060919A
:103780001B0170E075956795F3CF60911B0182FD79
:103790000BC09091AE029115A1F060911A01809139
:1037A0001B01961738F0682F70E06038710500F340
:1037B0008FE70895899FC001112470E00E94602B5B
:1037C000F4CF61E070E0D7CF81E00895E3E3E80F44
:1037D000E331E0F5F0E0E359F24D0C94962B0E94B2
:1037E000671B81958093B40208950E94671BFACFEE
:1037F0000E94671B81958093B30208950E94671B06
:10380000FACF0E94AD1B8093B50208950E94AD1BB4
:103810008195F9CF0E94AD1B81958093B6020895E2
:103820000E94AD1BFACF815D990B21E030E001C011
:10383000220F8A95EAF78091B202822B8093B2021E
:1038400008958091B00281608093B00208958091C4
:10385000B0028260F9CF8091B0028460F5CF4091D0
:10386000B3028D3C59F48091B40287FF0DC01092D1
:10387000B402411559F41092AF0208C08E3C81F495
:103880008091B40218169CF3411581F08091B50225
:103890009091B602892B811159C01092AE02089501
:1038A0008F3C41F447FFF0CF1092B3028091B402F5
:1038B0008115E0CF803D19F41416B4F3E5CF909153
:1038C000B502893D29F41916FCF61092B502DCCF39
:1038D0008A3D19F497FFD8CFF8CF9091B6028B3D6F
:1038E00029F497FFD1CF1092B602CECF8C3D19F4B8
:1038F0001916CCF3C9CF9FE2980F983090F4815DF0
:10390000990B21E030E0B90102C0660F771F8A955C
:10391000E2F7CB0180959091B20289238093B202A5
:10392000B3CF8D3D31F48091B0028E7F8093B00291
:10393000ABCF8E3D21F48091B0028D7FF7CF8F3DCC
:1039400009F0A2CF8091B0028B7FF0CF08950E9442
:10395000BB232091B3023091B402232B211521F017
:103960008093AC029093AD022091B5023091B602E3
:10397000232B211521F08093AA029093AB0281EBB7
:1039800092E00E949F21089586E0E1EBF2E0DF01E2
:103990001D928A95E9F71092AF021092AE02109232
:1039A000B0020895FC01828181110DC083818111D3
:1039B0000AC08481811107C081E09581911101C005
:1039C00080E08170089581E0FCCFA6E0B0E0EBEEEE
:1039D000FCE10C94AD2B86E0E1EBF2E09E012F5F61
:1039E0003F4FD90101900D928A95E1F71092B302F1
:1039F0001092B4021092B5021092B6028B819C8193
:103A0000892B7901811589F08091AC029091AD02EA
:103A10000E94D3236C018091AF028115B9F190917E
:103A200020019C151D0408F43EC08D819E81892BC8
:103A3000811591F08091AA029091AB020E94D3234C
:103A40008C018091AE02811509F45FC090911C0138
:103A50009017110608F467C0B70181EB92E00E944D
:103A6000F222811105C081EB92E00E94D21C8111EB
:103A70000E94A71C86E0F701A1EBB2E001900D9235
:103A80008A95E1F72696E8E00C94C92B2091210154
:103A90009AE0299F900111242C153D0530F68F5F87
:103AA0008093AF0202C08F3FD1F7DB80D11459F071
:103AB0000E94671B91E01D140CF09FEF899F802DE1
:103AC00011248093B302DC80D11459F00E94671B4B
:103AD00091E01D140CF09FEF899F802D112480939D
:103AE000B4028091B302811509F49FCFD090B40243
:103AF000D11409F49ACF0E94591B8093B3028D2DE3
:103B00000E94591B8093B40290CF20911D019AE02E
:103B1000299F900111242017310708F09DCF8F5F56
:103B20008093AE0202C08F3FD1F71D81111559F06D
:103B30000E94AD1B91E011160CF09FEF899F802D24
:103B400011248093B5021E81111559F00E94AD1BFE
:103B500091E011160CF09FEF899F802D1124809326
:103B6000B6028091B502811509F476CF1091B602A4
:103B7000111509F471CF0E94591B8093B502812F52
:103B80000E94591B8093B60267CFA0E0B0E0EBEC37
:103B9000FDE10C94AC2BE82FF0E0E153FD4FB49025
:103BA000282F26952695269530E0F901E159FC4FFE
:103BB0000491877010E0082E02C0159507950A94AD
:103BC000E2F701701127F901E15AFC4FE490F12C62
:103BD000082E02C0F594E7940A94E2F7E0FAEE2486
:103BE000FF24E0F8F901E15BFC4FC491D0E002C092
:103BF000D595C7958A95E2F7C170DD27C62ED12CE1
:103C00000115110549F5E114F10431F086EE0E9429
:103C10004904C601009771F5B6018B2D0E94C404BA
:103C2000C601009779F5E114F104A1F5011511051C
:103C300031F081EE0E949104C6010097C9F5CD2BA9
:103C400031F08CE20E94DE04C114D104C9F5CDB775
:103C5000DEB7E9E00C94C82B81EE0E944904C6014E
:103C6000009789F2EFE9FFE03197F1F700C000001B
:103C70000197F6CFEFE9FFE03197F1F700C00000C0
:103C80000197C8CFEFE9FFE03197F1F700C00000DE
:103C90000197C7CF86EE0E949104C601009731F2CA
:103CA000EFE9FFE03197F1F700C000000197F6CF90
:103CB000EFE9FFE03197F1F700C000000197BDCFB9
:103CC0008FE99FE00197F1F700C0000091E0C91A69
:103CD000D108BACFEF92FF921F93CF93DF93EC01FD
:103CE000162F8881811509F45AC0813009F053C01C
:103CF0008981813071F47E0182E0E80EF11C8A81B5
:103D00000E94DE04E701812F90E00097E1F5219603
:103D1000E8CF823041F47E01E2E0EE0EF11C8A81B0
:103D20000E944904EFCF833041F47E01F2E0EF0EB0
:103D3000F11C8A810E949104E5CF843011F0219614
:103D4000E2CF2A81229680E090E06AE0AE014F5FE8
:103D50005F4F2053330B2A30310550F0009799F212
:103D6000EFE9FFE03197F1F700C000000197F6CFCF
:103D7000689FF001699FF00D1124C9018E0F9F1FEC
:103D80002981EA01E3CFEFE9FFE03197F1F700C0C5
:103D900000000197BACF612F0E94C51DB8CFDF91F7
:103DA000CF911F91FF90EF9008950F931F93CF93A2
:103DB000DF93C42FD22FFC0185818115C9F0409378
:103DC000B9020E94BB239093B8028093B70280E2AD
:103DD0008C0F883040F4C77081E001C0880FCA950D
:103DE000EAF70E94E704DF91CF911F910F910895A8
:103DF0001091B902141333C08091B7029091B802A8
:103E00000E94D323883C910550F5C0E2CD0F1D17C9
:103E1000C1F080E2810F883040F4177081E001C06A
:103E2000880F1A95EAF70E94EE04C83050F491E02A
:103E30008D2F877001C0990F8A95EAF7892F0E940C
:103E4000E704802F0E94DE04C83068F6D77081E056
:103E500001C0880FDA95EAF70E94EE04C4CF80E231
:103E60008C0F883008F0BFCFC77081E001C0880F89
:103E7000CA95EAF7F1CF0F93DB01FC01E851FC474B
:103E8000E730F10598F5E058F24D0C94962B06E2D8
:103E900021EE41EE6AE17CE7CD010E94D51E80E073
:103EA0000F91089507E225EE45EE6BE17CE7F4CF34
:103EB00006E221EE40EE68E17CE7EECF07E225EE78
:103EC00044EE69E17CE7E8CF06E221EE42EE6CE1E8
:103ED0007CE7E2CF07E225EE46EE6DE17CE7DCCF42
:103EE00008E221E045EE6EE17CE7D6CF15968C9195
:103EF00081111092B90281E0D3CFCF93DF939C015F
:103F0000FB0127378CE7380739F028373C47F1F0B9
:103F100081E0DF91CF9108958581811591F00E9414
:103F2000AF1F0E94B5070E94B51FD82F0E94B21F75
:103F3000C82F0E94AF1F4D2F6C2F0E94DE0880E01B
:103F4000E8CF0E94AF1F0E94C107EDCF8581811588
:103F500019F00E94B21FE5CF0E94B21FF4CF8091EA
:103F600024010895809123010895809122010895EC
:103F700084E290E00E948F2C843289F485E290E004
:103F80000E948F2C893059F486E290E00E948F2C99
:103F900091E0853009F090E0892F8170089580E0EC
:103FA000FCCFCF93C82F64E2811101C06FEF84E290
:103FB00090E00E94B32C69E0C11101C06FEF85E26F
:103FC00090E00E94B32C65E0C11101C06FEF86E262
:103FD00090E00E94B32CCF910895089587E290E07D
:103FE0000E948F2C682F70E080E090E00895089583
:103FF000CF93C62F0E94F71F6C2F87E290E00E949C
:10400000B32CCF91089580E00E94D11F60E070E052
:10401000CB010E94F81F0E9425190E94CF1981E050
:104020000E94D11F08950E94ED1F0E94EE1F0E9462
:10403000F71F0E94B81F811102C00E94032008953B
:104040000E94631708959C01FB018581811551F041
:10405000A90157574038510530F4822F0E94DF19CB
:1040600080E0089581E008952FEFFC0120830895FA
:1040700080E00895CF93DF93EC0188818330F1F0E5
:1040800038F4813071F0823081F0DF91CF91089562
:104090008430D9F70E94001389830E9403138A8316
:1040A000F4CF0E9406138983F0CF0E949F128115DE
:1040B00019F00E949612F7CF80E0F5CF0E94E3122C
:1040C000F2CFCF93DF93EC018881833039F138F45C
:1040D000813069F08230B1F0DF91CF910895843062
:1040E000D9F70E940613482F6A81898108C0D981B7
:1040F0000E940313C82F0E9400134D2F6C2F0E94A3
:10410000DE14EACF8981811103C00E946516E4CFD5
:104110000E94591789810E941417DECF89810E945D
:10412000FC12DACFFC019C012E5F3F4F908198304A
:1041300041F0993051F0973059F4C9010E94612043
:104140000895C9010E943A2008950E9475120895A9
:104150008FEF80830895FC018181823021F4CF01AB
:104160000E9492200895CF010E94342008951F9349
:10417000CF93DF93EC01162F0E943820811110C0DD
:10418000E881E150E331C0F4F0E0E957F24D0C94DE
:10419000962B19828CE08A83612FCE010E947424B1
:1041A000DF91CF911F91089589818330F9F038F420
:1041B000813061F0823099F08FEF8883EDCF8430C9
:1041C000D9F71A821B821C821D82E6CF0E94C72368
:1041D0000E949C2B6A837B838C839D83DDCF0E940E
:1041E000EE1F1A821B821C826D83D6CF8A818111B9
:1041F000D3CF0E9465108B83CFCF8981823031F07D
:104200008530D1F68A810E942020C6CF6A817B81C9
:104210008C819D810E949C2B0E94F81FBDCF4B81F9
:104220006A8189810E94DB189827892798279D83B6
:104230008C83B2CF2C813D813227232732274B81BB
:104240006A8189810E940419A7CF0E942519A4CFF1
:10425000612FCE010E94AB209FCF0E9487198983D6
:104260009BCF0E9489199827892798279A83898349
:1042700093CF6B8170E089819A81AE014C5F5F4F73
:104280009827892798270E948C1986CF6B8170E028
:1042900089819A81AE014C5F5F4F982789279827C3
:1042A0000E94AE1979CF0E94CF1976CF0E94D918FB
:1042B000D6CF6B8170E089819A81AE014C5F5F4FF0
:1042C0009827892798270E943D1966CF6B8170E057
:1042D00089819A81AE014C5F5F4F98278927982783
:1042E0000E945C1959CF9093BF028093BE0208953B
:1042F000E091BE02F091BF02309729F00190F08169
:10430000E02D0995089580E00895E091BE02F091B6
:10431000BF02309721F00280F381E02D09950895C6
:10432000DC01E091BE02F091BF02309739F086E0E7
:104330008C930480F581E02DCD0109950895DC0171
:10434000E091BE02F091BF02309739F082E08C9389
:104350000680F781E02DCD0109950895A3E0B0E036
:10436000E4EBF1E20C94B32B9C018091BC029091A0
:10437000BD0282179307A1F03093BD022093BC02C7
:10438000E091BE02F091BF02309751F083E0898343
:104390003B832A830084F185E02DCE0101960995A7
:1043A0002396E2E00C94CF2BA3E0B0E0EAEDF1E23B
:1043B0000C94B32B9C018091BA029091BB0282179E
:1043C0009307A1F03093BB022093BA02E091BE02A2
:1043D000F091BF02309751F084E089833B832A83B8
:1043E0000084F185E02DCE01019609952396E2E047
:1043F0000C94CF2B20910601309107012E5F3F4F87
:1044000080912F01811579F08091CC0287FF0BC03C
:1044100020910401309105012E5F3F4F9EE180E025
:10442000915018F4089596E0FACFF90141919F0157
:104430004115B1F38F5FF4CF8115A1F190912F0158
:10444000911521F09091CC0297FD0FC020910601AB
:1044500030910701F9013296285F3F4F91919817EB
:1044600019F1E217F307D1F71DC0982F969596958D
:104470009695803FB8F4E0910401F0910501E90FB1
:10448000F11D228130E0877041E050E0BA0102C0A6
:10449000660F771F8A95E2F7CB012623392381E047
:1044A000232B19F480E0089581E008959C01FC011C
:1044B00032968FEF90E04191461751F08F3F19F4FB
:1044C000411101C0892F9F5F9630A9F78F3F09F4F2
:1044D0000895280F311D87FD3A95F90162830895EB
:1044E0009C01FC013296285F3F4F8191861302C0E8
:1044F000DF011E92E217F307C1F70895FC01862F32
:10450000869586958695603F60F4E80FF11D67708B
:1045100021E030E001C0220F6A95EAF78281822B08
:1045200082830895FC01862F869586958695603F47
:1045300080F4E80FF11D677081E090E09C0102C0FB
:10454000220F331F6A95E2F7B901609582816823D3
:1045500062830895682F80912F01811559F0809111
:10456000CC0287FF07C080910401909105010E9451
:104570007E22089580910601909107010E945622A3
:104580000895682F80912F01811559F08091CC02F8
:1045900087FF07C080910401909105010E9492223B
:1045A000089580910601909107010E94702208955C
:1045B00080912F01811579F08091CC0287FF0BC08B
:1045C000E0910401F091050132968EE1DF011D9228
:1045D0008A95E9F70895E0910601F0910701329676
:1045E00086E0F4CFDC01FB0111969C91119781814B
:1045F000981322C012968C911297811519F092810E
:1046000089131AC013968C911397811519F0938111
:10461000891312C015968C911597811519F0958103
:1046200089130AC014969C91911521F081E0248190
:10463000291303C080E001C081E0817008950895CE
:104640000E941F2308958F5F8093C0020E94202341
:10465000089583E08093C0020E94202308950E9461
:104660002323089581E08093C0020E9420230895AF
:104670000E9432230895089508950E943C230895CE
:10468000089508950E943B2308950E9440230E94AC
:10469000E5100E94412380E00E946510982F81E080
:1046A000911101C080E0089585B7806885BF85B706
:1046B000806885BF08951F921FB61F9211248F93A3
:1046C0009F93AF93BF938091C102811113C08091DA
:1046D000E4029091E502A091E602B091E7024196D2
:1046E000A11DB11D8093E4029093E502A093E60220
:1046F000B093E702BF91AF919F918F911F901FBE22
:104700001F9018958091EC02843031F10E94C00313
:104710001092C10288E190E020E40FB6F894A895C9
:10472000809360000FBE2093600083B7817F846018
:1047300083BF83B7816083BF7894889583B78E7F6A
:1047400083BF0FB6F894A89580916000886180932C
:104750006000109260000FBE08950E9434070E940E
:10476000C703089582E084BD93E095BD9AEF97BD9D
:1047700080936E0008952FB7F8948091E402909191
:10478000E502A091E602B091E7022FBF08952FB78E
:10479000F8946091E4027091E5028091E6029091B4
:1047A000E7022FBF08959C014FB7F8948091E4026F
:1047B0009091E502A091E602B091E7024FBF821B03
:1047C000930B089578941F921FB61F9211248F9314
:1047D0009F93AF93BF938091E4029091E502A091E3
:1047E000E602B091E7020196A11DB11D8093E4029B
:1047F0009093E502A093E602B093E702BF91AF91D8
:104800009F918F911F901FBE1F90189587E797E784
:10481000909301088093000888E19AE00FB6F8941D
:10482000A895809360000FBE90936000FFCF88E151
:104830009AE00FB6F894A895809360000FBE90930D
:104840006000FFCF8091CA020895282FCB01BA01E2
:104850003091EC023430D9F42F702093E9002FEF1F
:104860003091E80035FD06C035ED3A95F1F70000CE
:104870002A95B1F72091E80025FF09C040E050E0FB
:104880000E946A268091E8008E778093E800089560
:10489000BC0143E050E084E00E9425240895BC015F
:1048A00046E050E084E00E9425240895BC0140E2E7
:1048B00050E084E00E9425240895CF93DF93D82F01
:1048C000C92F48E050E0682F792F81E00E9425240D
:1048D00088E0ED2FFC2FA2ECB2E001900D928A95BA
:1048E000E1F7DF91CF910895792F603231F440E202
:1048F00050E0682F82E00E9425240895A0E2B0E0F5
:10490000E4E8F4E20C94B32B8091EC02843009F5D6
:1049100083E08093E9008091E80082FF1AC08091D3
:10492000E80090E085FF09C040E050E060E270E000
:10493000CE0101960E94BA2691E08091E8008B7723
:104940008093E800911529F060E2CE0101960E9463
:10495000B720A096E2E00C94CF2B8091EB0281115E
:1049600009C00E9443280E94A0288091E200846030
:104970008093E20008951092EB0208950E94322382
:1049800008956091E80281E0611101C080E00E9419
:10499000292308959091EC0281E0943009F080E0A1
:1049A0006091E8020E942F23089542E061EC81E0CB
:1049B0000E94BF2742E261EC84E00E94BF2742E2EE
:1049C00061EC82E00E94BF2742E260EC83E00E943B
:1049D000BF279091EC0281E0943009F080E0609173
:1049E000E8020E94232308958091EE02893089F124
:1049F00048F4823009F4A1C0833009F45BC08130EF
:104A000041F008958A3009F488C08B3009F46DC0F4
:104A100008958091ED02813A09F04BC08091E80041
:104A2000877F8093E8008091F1029091F202892BB8
:104A300061F060E080E090E070E00E940A278091E1
:104A4000E8008B778093E800089568E082EC92E0BC
:104A5000F3CF8091ED02813261F58091F102909166
:104A6000F2028D7F892B29F58091E800877F809362
:104A7000E8008091E80082FF18C09091F3008091D7
:104A8000F200029731F48091F100813011F086300C
:104A900021F48091F1008093CA028091E8008B7725
:104AA0008093E8000E94F32708958091EC02811121
:104AB000E0CF08958091ED02813AD9F78091F1021B
:104AC0009091F202892BA9F78091E800877F80936B
:104AD000E8008091E80080FFFCCF80912F01809357
:104AE000F1008091E8008E77DBCF8091ED0281327A
:104AF00001F78091F1029091F202892BD1F6809119
:104B0000E800877F8093E8000E94F3278091EF02FE
:104B100080932F010E94340708958091ED02813225
:104B200041F68091E800877F8093E8000E94F32798
:104B30008091F0028093CB0208958091ED02813A3A
:104B400009F0B7CF8091E800877F8093E8008091DB
:104B5000E80080FFFCCF8091CB02C1CF84B7877F74
:104B600084BF0FB6F894A895809160008861809307
:104B70006000109260000FBE80E890E00FB6F894DD
:104B800080936100909361000FBE0E9438230895C6
:104B90000E9443280E94A028E2EEF0E08081846019
:104BA000808378940E94262B089585E291E00E94EC
:104BB000732108958091EC02853031F48091EC02EC
:104BC000853019F00E94AD2308950E9482230E942F
:104BD0004523811599F38091EA02811579F30E94AA
:104BE00054260E943407EACF08959A014091F302B7
:104BF0005091F4020E94FD250895FC01AB01D901FA
:104C0000892F992783309105C1F068F4813091058F
:104C100009F445C0029761F48BE590E029EA33E09E
:104C20002D933C93089581329105E1F0829739F1FB
:104C300080E090E020E030E0F3CFCF019927E13031
:104C400059F08230910559F0E5EAF3E0892B81F7BC
:104C5000849190E09F01E4CFE1E9F3E0F9CFEFE741
:104C6000F3E0F6CF6330710518F7FB01EE0FFF1F7D
:104C7000E053FE4F2081318189E090E0D1CF633055
:104C80007105B0F6FB01EE0FFF1FE653FE4F2081CA
:104C9000318149535E4FFA01808190E0C1CF82E1BA
:104CA00090E024E034E0BCCF80E189BD82E189BDA1
:104CB00009B400FEFDCF8091D8008F7D8093D8008D
:104CC0008091E00082608093E0008091E00081FDAF
:104CD000FCCF0895AF92BF92CF92DF92EF92FF92F6
:104CE0000F931F93CF936C018B017A010E941228BE
:104CF000C82F811123C0E114F10439F0F70180813C
:104D00009181081B190BC80ED91EA12CB12C0115BD
:104D10001105A1F08091E80085FD21C08091E80097
:104D20008E778093E800E114F10499F0F701808117
:104D300091818A0D9B1D91838083C5E08C2FCF913B
:104D40001F910F91FF90EF90DF90CF90BF90AF90A9
:104D500008950E9412288115E9F2C82FEFCFF601BD
:104D600081916F018093F10001501109FFEFAF1A9B
:104D7000BF0ACDCFAF92BF92CF92DF92EF92FF9258
:104D80000F931F93CF936C018B017A010E9412281D
:104D9000C82F811123C0E114F10439F0F70180819B
:104DA0009181081B190BC80ED91EA12CB12C01151D
:104DB0001105A1F08091E80085FD21C08091E800F7
:104DC0008B778093E800E114F10499F0F70180817A
:104DD00091818A0D9B1D91838083C5E08C2FCF919B
:104DE0001F910F91FF90EF90DF90CF90BF90AF9009
:104DF00008950E9412288115E9F2C82FEFCF809103
:104E0000F100F60181936F0101501109FFEFAF1A14
:104E1000BF0ACDCFFC019B018091F3029091F40277
:104E20008617970718F0672B61F0C90140E00097DB
:104E300071F441110CC08091E80082FF35C080E020
:104E400008958091E8008E778093E800EECF20915E
:104E5000EC022115A9F12530A9F12091E80023FDEC
:104E60002DC02091E80022FDE6CF2091E80020FF30
:104E7000DECF3091F3002091F200009719F0283036
:104E8000310558F041E02830310509F040E020912B
:104E9000E8002E772093E800CACF41914093F100BB
:104EA00001972F5F3F4FE9CF8091EC02811541F0D0
:104EB000853041F08091E80083FFBDCF81E0089507
:104EC00082E0089583E00895FC019B018091F30244
:104ED0009091F4028617970718F0672B61F0C901CB
:104EE00040E0009771F441110CC08091E80082FF0E
:104EF00036C080E008958091E8008E778093E800C6
:104F0000EECF2091EC022115B1F12530B1F12091C5
:104F1000E80023FD2EC02091E80022FDE6CF20917D
:104F2000E80020FFDECF3091F3002091F2000097DF
:104F300019F02830310558F041E02830310509F0EA
:104F400040E02091E8002E772093E800CACF4491FA
:104F50004093F100319601972F5F3F4FE8CF80914A
:104F6000EC02811541F0853041F08091E80083FF2B
:104F7000BCCF81E0089582E0089583E00895982FE2
:104F8000973028F08F708093E90081E00895909326
:104F9000E900242F762F50E0981731F07091EC0043
:104FA0002091ED005091F00021FD02C09F5FE8CFFD
:104FB0003091EB003E7F3093EB003091ED003D7F70
:104FC0003093ED003091EB0031603093EB00709343
:104FD000EC002093ED005093F0002091EE0027FDAF
:104FE000E5CF80E008958091ED0287FF13C08091A6
:104FF000E80082FF06C08091E8008B778093E8008C
:1050000008958091EC028111F2CF08958091EC0215
:105010008115D9F38091E80080FFF8CF8091E800F6
:105020008E77ECCF2091E4003091E50095E6A90160
:105030002091EC00822F817020FF06C08091E80053
:1050400080FF06C080E008952091E80022FD1AC08C
:105050008091EC02811589F0853089F08091EB0018
:1050600085FD0FC02091E4003091E5004217530701
:10507000F9F29A95E1F684E0089582E0089583E0DC
:10508000089581E008950E94B2280E94BA28E0EEB7
:10509000F0E0808181608083E8EDF0E080818F77AF
:1050A000808319BCA7EDB0E08C918E7F8C938081BA
:1050B0008F7E80831092EB0208950F931F93CF93FE
:1050C000DF930E94B2280E94BA28C8EDD0E0888100
:1050D0008F77888388818068888388818F7D8883A3
:1050E00019BC1092EC021092E8021092EA0210929F
:1050F000E90200EE10E0F80180818B7F80838881D7
:105100008160888342E060E080E00E94BF27E1EE9A
:10511000F0E080818E7F8083E2EEF0E0808181602C
:105120008083808188608083F80180818E7F808386
:10513000888180618883DF91CF911F910F910895BD
:10514000E8EDF0E080818F7E8083E7EDF0E0808104
:105150008160808384E082BF81E08093EB020E94C3
:105160005D280895E8EDF0E080818E7F80831092C5
:10517000E20008951092DA001092E10008951F9263
:105180000F920FB60F9211242F933F934F935F937B
:105190006F937F938F939F93AF93BF93EF93FF93FF
:1051A0008091E10082FF0BC08091E20082FF07C086
:1051B0008091E1008B7F8093E1000E94252B8091FC
:1051C000DA0080FF19C08091D80080FF15C080915F
:1051D000DA008E7F8093DA008091D90080FF94C03E
:1051E00080E189BD82E189BD09B400FEFDCF81E087
:1051F0008093EC020E94AD248091E10080FF19C0F1
:105200008091E20080FF15C08091E2008E7F809344
:10521000E2008091E20080618093E2008091D800FA
:1052200080628093D80019BC85E08093EC020E94D4
:10523000C1248091E10084FF29C08091E20084FFB5
:1052400025C080E189BD82E189BD09B400FEFDCFA2
:105250008091D8008F7D8093D8008091E1008F7E6F
:105260008093E1008091E2008F7E8093E200809144
:10527000E20081608093E2008091E802811509F4E8
:1052800049C084E08093EC020E94CA248091E1002E
:1052900083FF29C08091E20083FF25C08091E10057
:1052A000877F8093E10082E08093EC021092E80215
:1052B0008091E1008E7F8093E1008091E2008E7FFB
:1052C0008093E2008091E20080618093E20042E0FE
:1052D00060E080E00E94BF278091F00088608093AA
:1052E000F0000E94BE24FF91EF91BF91AF919F917A
:1052F0008F917F916F915F914F913F912F910F907F
:105300000FBE0F901F90189519BC1092EC020E94CE
:10531000BB2472CF8091E30087FF02C083E0B2CF4D
:1053200081E0B0CF1F920F920FB60F921124EF922F
:10533000FF920F931F932F933F934F935F936F931E
:105340007F938F939F93AF93BF93CF93EF93FF93ED
:1053500009EE10E0F8018081C091EC008F70C795D4
:10536000CC27C795C82B108280EFE82EF12CF701CF
:105370008081877F808378940E94DD29F8011082E4
:10538000F701808188608083CF70F801C083FF912E
:10539000EF91CF91BF91AF919F918F917F916F913D
:1053A0005F914F913F912F911F910F91FF90EF903F
:1053B0000F900FBE0F901F901895AAE2B0E0E3EE99
:1053C000F9E20C94B12B8DEE92E0FC010196209154
:1053D000F100208322E0853F9207B9F70E94F42470
:1053E0008091E80083FF38C08091ED029091EE0239
:1053F0009A3090F5E92FF0E0E656F24D0C94962B9A
:10540000803889F0823841F58091F1028F708730C1
:1054100018F58093E9008091EB0085FB882780F9DF
:105420001092E90006C08091EA02880F9091E9028B
:10543000892B9091E800977F9093E8008093F1008A
:105440001092F1008091E8008E7723C0811116C080
:105450008091EF02813011F18091E80083FF0AC052
:105460008091E800877F8093E8008091EB00806264
:105470008093EB00AA96E4E00C94CD2B823061F788
:105480008091EF02811589F01092E9008091E80087
:10549000877F8093E8000E94F327DECF81E093307E
:1054A00009F080E08093EA02EFCF8091F1028F70E3
:1054B0002FEF280F263080F68093E9002091EB0033
:1054C00020FFE2CF933031F48091EB008062809333
:1054D000EB00DACF9091EB0090619093EB0021E02C
:1054E00030E0A90102C0440F551F8A95E2F74093AE
:1054F000EA001092EA008091EB008860E8CF811109
:10550000ABCF1091EF021F778091E3008078812B61
:105510008093E3008091E800877F8093E8000E94F9
:10552000F3278091E80080FFFCCF8091E300806842
:105530008093E30083E0111101C082E08093EC02CC
:105540008BCF8058823008F087CF8091EF02909106
:10555000F0028C3D53E0950799F583E08A838AE257
:1055600089834FB7F894DE01139620E03EE051E2C4
:10557000E32FF0E050935700849120FF03C0829501
:105580008F703F5F8F708A30C8F0895C90E08D9398
:105590009D932F5F243161F74FBF8091E800877F93
:1055A0008093E8006AE270E0CE0101960E940A272B
:1055B0008091E8008B778093E8004ECF805DE6CF46
:1055C0006091F1027091F202AE014F5F5F4F0E9455
:1055D000F5258C01892B09F43FCF8091E800877F66
:1055E0008093E800B80189819A810E946427E0CF06
:1055F000803809F031CF8091E800877F8093E80000
:105600008091E8028093F1001DCF811125CF909108
:10561000EF02923008F020CF8091E800877F8093DE
:10562000E8009093E8020E94F3278091E802811538
:1056300031F084E08093EC020E94D5240DCF80915C
:10564000E30087FDF6CF81E0F5CF0895CF938091F9
:10565000EC02811599F08091E900C091EC008F7007
:10566000C795CC27C795C82B1092E9008091E80018
:1056700083FD0E94DD29CF70C093E900CF9108958A
:10568000992778E0880F991F961708F0961B881FB6
:105690007A95C9F780950895AA1BBB1B51E107C0F5
:1056A000AA1FBB1FA617B70710F0A61BB70B881FB2
:1056B000991F5A95A9F780959095BC01CD01089541
:1056C00097FB072E16F4009407D077FD09D00E94AF
:1056D0004C2B07FC05D03EF4909581959F4F089583
:1056E000709561957F4F0895A1E21A2EAA1BBB1BEE
:1056F000FD010DC0AA1FBB1FEE1FFF1FA217B3079E
:10570000E407F50720F0A21BB30BE40BF50B661FB3
:10571000771F881F991F1A9469F760957095809577
:1057200090959B01AC01BD01CF010895EE0FFF1FC5
:105730000590F491E02D0994692796276927782729
:105740008727782708952F923F924F925F926F920A
:105750007F928F929F92AF92BF92CF92DF92EF9201
:10576000FF920F931F93CF93DF93CDB7DEB7CA1B82
:10577000DB0B0FB6F894DEBF0FBECDBF09942A88AD
:10578000398848885F846E847D848C849B84AA8455
:10579000B984C884DF80EE80FD800C811B81AA81E2
:1057A000B981CE0FD11D0FB6F894DEBF0FBECDBFAD
:1057B000ED010895002E083090F0982F872F762F56
:1057C000652F542F432F322F22270850F4CF220F5A
:1057D000331F441F551F661F771F881F991F0A9587
:1057E000B2F7002D089597FD1094002E083098F020
:1057F0000850232F342F452F562F672F782F892FAE
:10580000912DF4CF15949795879577956795579532
:105810004795379527950A95AAF71124002D0895E5
:105820008F929F92AF92BF92CF92DF92EF92FF92B0
:10583000CF93DF93EC01688179818A819B81611527
:1058400071058105910521F464E279ED8BE597E01E
:105850002DE133EF41E050E00E94E72C49015A016D
:105860009B01AC01A7EAB1E40E94062D6B017C010B
:10587000ACEEB4EFA50194010E94142DDC01CB0124
:105880008C0D9D1DAE1DBF1DB7FF03C00197A10963
:10589000B04888839983AA83BB839F77DF91CF9198
:1058A000FF90EF90DF90CF90BF90AF909F908F9040
:1058B00008950E94102C089580E091E00E94102C21
:1058C0000895B0E0A0E08093000190930101A093BF
:1058D0000201B09303010895FC014150504030F0A3
:1058E00001900616D1F73197CF010895882799279F
:1058F0000895FB01DC0104C08D910190801921F411
:1059000041505040C8F7881B990B0895FB01DC01FA
:1059100002C001900D9241505040D8F70895F99976
:10592000FECF92BD81BDF89A992780B50895A6E172
:10593000B0E044E050E00C94D92CA8E1B0E042E0A3
:1059400050E00C94D92CDC01A40FB51F41505040FD
:1059500048F0CB01840F951F2E910E94B42C41502A
:105960005040D0F70895262FF999FECF92BD81BD02
:10597000F89A019700B4021639F01FBA20BD0FB68D
:10598000F894FA9AF99A0FBE08950396272F0E9469
:10599000B42C0E94B32C252F0E94B42C242F0C94DD
:1059A000B42C0196272F0E94B42C0C94B32CDC014C
:1059B000CB01FC01F999FECF06C0F2BDE1BDF89A1A
:1059C000319600B40D9241505040B8F70895052E1D
:1059D00097FB1EF400940E94FE2C57FD07D00E94F6
:1059E000742B07FC03D04EF40C94FE2C509540957C
:1059F000309521953F4F4F4F5F4F0895909580957B
:105A0000709561957F4F8F4F9F4F08950E94192D7C
:105A1000A59F900DB49F900DA49F800D911D112402
:105A20000895B7FF0C94062D0E94062D821B930B40
:105A30000895A29FB001B39FC001A39F700D811D67
:105A40001124911DB29F700D811D1124911D089587
:105A5000F894FFCF330533057A057A05DF05FC0599
:105A60006205620501066E067F067F063218391848
:105A7000401845184A184F18541859185E186318DA
:105A800068186D1871187618791834187C1834183D
:105A90007F1882188418D81A491BE01AAA1AAE1A5D
:105AA000E41AB21AE81AF41ABE1A421BC21AF81AF9
:105AB000C61AFC1A211BCA1A001B281BD01A061B67
:105AC0000E1BB61AEC1ABA1AF01AD41A0A1B181BB3
:105AD000311B401BA41ADC1A501BEF1BF51BF81BD3
