:100000000C9497020C94B4020C94B4020C94B402B5
:100010000C94B4020C94B4020C94B4020C94B40288
:100020000C94B4020C94B4020C94E9270C94BD28EF
:100030000C9478220C94B4020C94B4020C94B40284
:100040000C94B4020C94B4020C94B4020C94B40258
:100050000C94B4020C94FF220C94B4020C94B402DD
:100060000C94B4020C94B4020C94B4020C94B40238
:100070000C94B4020C94B4020C94B4020C94B40228
:100080000C94B4020C94B4020C94B4020C94B40218
:100090000C94B4020C94B4020C94B4020C94B40208
:1000A0000C94B4020C94B4020C94B4022378247817
:1000B000277828781E0F0500047F3F1F64321478CC
:1000C0003C1E1E140A052223252628292A2C2D2F02
:1000D0003032333536383A3B3D3E4042434547495E
:1000E0004A4C4E5051535557595A5C5E6062646693
:1000F00068696B6D6F71737577797B7D7F8183859F
:1001000087898A8C8E90929496989A9C9E9FA1A3A0
:10011000A5A7A8AAACAEAFB1B3B4B6B8B9BBBCBEC4
:10012000BFC1C2C3C5C6C7C9CACBCCCDCED0D1D240
:10013000D2D3D4D5D6D7D7D8D9D9DADADBDBDBDC42
:10014000DCDCDCDCDDDDDDDDDCDCDCDCDCDBDBDBEE
:10015000DADAD9D9D8D7D7D6D5D4D3D2D2D1D0CE4E
:10016000CDCCCBCAC9C7C6C5C3C2C1BFBEBCBBB953
:10017000B8B6B4B3B1AFAEACAAA8A7A5A3A19F9ED1
:100180009C9A98969492908E8C8A89878583817F99
:100190007D7B79777573716F6D6B6968666462607A
:1001A0005E5C5A5957555351504E4C4A4947454346
:1001B00042403E3D3B3A3836353332302F2D2C2AE3
:1001C000292826252322FFAA7F554000010203008B
:1001D0000101010101010101010202020202020208
:1001E00002020303030303030303040404040404DB
:1001F00004050505050506060606060707070707A1
:1002000008080808090909090A0A0A0B0B0B0C0C53
:100210000C0D0D0D0E0E0E0F0F0F101011111112EF
:100220001213131414151516161717181819191A6E
:100230001A1B1B1C1D1D1E1E1F20202122222324D1
:1002400024252626272829292A2B2C2D2D2E2F3010
:10025000313232333435363738393A3B3C3D3E3F24
:10026000404142434445464748494A4C4D4E4F5011
:10027000515354555658595A5B5D5E5F61626465CF
:100280006668696B6C6D6F7072737577787A7B7D59
:100290007E8082838587888A8C8E8F9193959698AD
:1002A0009A9C9EA0A2A3A5A7A9ABADAFB1B3B5B7C9
:1002B000BABCBEC0C2C4C6C9CBCDCFD1D4D6D8DBA0
:1002C000DDDFE2E4E7E9EBEEF0F3F5F8FAFDFF003D
:1002D000000000000000002A2B28000000000000A1
:1002E0000000000000000000000029000000002CB9
:1002F0001E3420212224342627252E362D37382758
:100300001E1F202122232425263333362E37381F63
:100310000405060708090A0B0C0D0E0F1011121325
:100320001415161718191A1B1C1D2F3130232D35C3
:100330000405060708090A0B0C0D0E0F1011121305
:100340001415161718191A1B1C1D2F3130354C00A7
:10035000000000000000000000000000000000009D
:10036000000000000000000000000000000000008D
:100370000000007E0F00D4FFFFFFC70000007810D0
:10038000036B006F00730061006D006500340000B6
:10039000001203730061006D00310064006100729F
:1003A00000650000000403090409025B000301006A
:1003B000A0FA090400000103010100092111010054
:1003C0000122400007058103080001090401000221
:1003D000030000000921110100012222000705820B
:1003E00003200001070503032000010904020001A6
:1003F0000300000009211101000122B60007058455
:10040000032000011201000200000008313A01003F
:100410000001010200010660FF0961A101096215E6
:100420000026FF009520750881020963150026FF4C
:1004300000952075089102C005010902A1018502FD
:100440000901A100050919012908150025019508D0
:10045000750181020501093009311581257F950259
:100460007508810609381581257F95017508810673
:10047000050C0A38021581257F950175088106C093
:10048000C005010980A101850319012AB7001501E2
:1004900026B700950175108100C0050C0901A10166
:1004A000850419012AA002150126A00295017510E4
:1004B0008100C005010906A1018506050719E0298B
:1004C000E715002501950875018102050719002926
:1004D000EF1500250195F075018102050819012924
:1004E00005950575019102950175039101C00501FE
:1004F0000906A101050719E029E71500250195085E
:10050000750181029501750881010507190029FF10
:10051000150026FF009506750881000508190129B8
:1005200005950575019102950175039101C011248E
:100530001FBECFEFDAE0DEBFCDBF11E0A0E0B1E03B
:10054000EEEDF8E502C005900D92A43DB107D9F794
:1005500022E0A4EDB1E001C01D92AE3EB207E1F78A
:100560000E9458110C94062C0C94000081E0089510
:10057000862B59F4443048F4E42FF0E0EE0FFF1FCF
:10058000E455FF4F85919491089581E090E008959E
:1005900081E0089581E008950E94CA0208950895B7
:1005A0000E94CF020895A5E0B0E0E9EDF2E00C94DE
:1005B000D62A49835A833091DB0189819A8131118E
:1005C00019C0662399F0222389F00E945008182F41
:1005D000682F89819A810E94350869817A81812FEB
:1005E0000E94300F2596E3E00C94F22A0E94420804
:1005F000182FF3CF0E94500869817A81F1CFFC0156
:10060000262F408151816281738184810E94D302AF
:10061000089581E00895CF93DF93EC0160E00E949C
:10062000FF02BE010E94D002DF91CF91089508958C
:100630000E942B070E9417032FEF84E39CE02150B8
:1006400080409040E1F700C0000008950E94180328
:100650000E94232308950E9418030E9434230895C2
:100660000F931F93CF93DF938C0161E00E94FF02F1
:10067000EC01B8010E941D1B811106C080E0DF91D2
:10068000CF911F910F910895B801CE010E94CC0225
:100690008823A1F3B801CE010E945620882371F36C
:1006A000B801CE010E948A1C882341F3B801CE0113
:1006B0000E94C81F882311F3B801CE010E941C1AA2
:1006C0008823E1F2B801CE010E949A208823B1F27A
:1006D000F8018281882361F0C330FCE7DF07E9F08D
:1006E00058F4C115ECE7DE07A9F0C130DC47B9F0DA
:1006F000C8010E94C802C3CFCB358CE7D807A9F048
:10070000CC35ECE7DE0771F0CA35DC4789F70E948B
:10071000A30CEECF0E942603B1CF0E94AB0C0E9427
:100720002B03ACCF0E94990CE3CF0E94A70CE0CF23
:100730000E945A220E94C3030E94921808950E94A8
:10074000C7030E9473190E945F220895089581E0F3
:1007500008950895CF93DF93D82F0E94A703C82F41
:10076000882319F08D2F0E94A9038C2FDF91CF9140
:1007700008950895CF93C82F0E94A6038C2F0E943E
:10078000AA03CF91089580E00E94BA0308950E94C1
:10079000ED200E94BA030895CF930E94ED20C82F48
:1007A0008091D6018C1779F0C093D6010E94E42283
:1007B0006093D7017093D8018093D9019093DA01A7
:1007C0008C2F0E94BA03CF910895ABE0B0E0EBEE1E
:1007D000F3E00C94D72A4F83588769877A878B87F1
:1007E00061110E94E40B1E821D8285E0FE01379696
:1007F000DE01119601900D928A95E1F78C819D8121
:10080000892B61F449815A816B817C818D819E8124
:100810000E940C0B2B96E2E00C94F32A89819A81BA
:1008200089238F3F79F3CE0101960E94090381113C
:10083000E9CFF0CFFC01808191810E947D0808956D
:10084000662329F00E94DC110E94AF1208950E94D5
:100850003612FACFCF93C82F8823B9F08CEF8C0FC4
:10086000813AA8F46C2F80910401909105010E94B7
:100870008021882329F08C2F0E94A40B0E94050C54
:100880008C2F0E949C0B0E94050CCF91089580E252
:100890008C0F883048F4C77081E001C0880FCA957A
:1008A000EAF70E94C70BEFCFEBE5EC0FE33040F423
:1008B000F0E0EE59FE4F808190E00E942221E5CFCA
:1008C000E8E5EC0FEB3150F4F0E0EE0FFF1FE45DD4
:1008D000FE4F808191810E944721D7CF83E38C0F07
:1008E000833198F661E08C2F0E942004CECF8823BC
:1008F00081F19CEF980F913A28F40E94A40B0E947A
:10090000050C089590E2980F983050F4877091E0AC
:1009100001C0990F8A95EAF7892F0E94CD0BEFCF7E
:100920009BE5980F933028F490E080E00E9422210C
:10093000089598E5980F9B3128F490E080E00E949C
:100940004721089593E3980F933118F460E00E94D3
:10095000200408951F93CF93DF93182FEB010E947B
:100960002A04209739F4812F0E947704DF91CF91D8
:100970001F9108958FE99FE00197F1F700C00000F3
:100980002197EFCF70E060E0893311F460E570E00B
:100990000E94AA040895882321F00E94C70B0E9498
:1009A000050C0895882321F00E94CD0B0E94050CB0
:1009B0000895B0E0A0E0EFEDF4E00C94D02A6C01D3
:1009C000D62FC72FFC011281058102950F700E945E
:1009D000BD0BE82E8823E9F0E12E1123D1F08C2FF6
:1009E000807F803451F080E28D0F8830F8F0011163
:1009F00004C08C2F807E8032C9F08091C90282FFB2
:100A000015C082E00E94680C0E94BD0B91E0E82EA8
:100A1000E926BC2EB2949FE0B922FBE0FB15B8F1A9
:100A2000EB2DF0E0E85FF34D0C94BA2AE12CF1CF06
:100A30000C2F0F70C07F11F00295007F112399F0E9
:100A4000002359F080E28D0F883010F0D11107C0DB
:100A5000802F0E94C70B0E94050C8D2F63C0802F32
:100A60000E94D70BF8CF8D2F0E947704002379F0D6
:100A700080E28D0F883010F0D11104C0802F0E94C9
:100A8000CD0B03C0802F0E94DD0B0E94050C2B2D87
:100A90002850330B2430310520F40E94ED200E94B1
:100AA000BA03EE2089F00E94B90B80FD0DC0F6015B
:100AB00012820E94B30B0E94A907C6010E94EB0696
:100AC0000E94B30B0E94B507CDB7DEB7E9E00C94E6
:100AD000EC2A2C2F2F70F22EC07FC03219F0F29426
:100AE00080EFF822DD2381F0D13009F449C01123D1
:100AF00009F451C0002309F448C0F601858180FF44
:100B0000ACCF8F70858341C08091C90282FD15C032
:100B1000112359F0FF2029F08F2D0E94C70B0E944E
:100B2000050C80E00E942A04B2CF80E00E94770486
:100B3000FF2009F4ACCF8F2DA2CF112381F001113A
:100B400006C00E94E70B8F290E94CB04A0CF013082
:100B5000C1F70E94E70B8F290E94EE0B98CF01117D
:100B600006C00E94FB0B8F2D0E94D20490CF013053
:100B700009F48DCF8F2D0E94D2040E94FB0B87CFEA
:100B8000112329F0063008F082CF8F2DDDCF0530FC
:100B900008F07DCFE8CF002331F3D93349F4FFEFDC
:100BA00027EE33E0F15020403040E1F700C0000074
:100BB0008D2F0E9477046BCF8C2F8695869583703E
:100BC00069F0813009F063CF8D2F9C2F9370111144
:100BD00002C080E090E00E94472159CF8D2F9C2FCA
:100BE0009370111102C080E090E00E9422214FCF4B
:100BF000612F8D2F0E9420044ACF8C2F837079F5AE
:100C0000111145CF4D2F429546954770440F440F23
:100C10008D2F8F70042E01C0880F0A94EAF72D2FB4
:100C20002071D4FF07C02FE030E001C0220F4A95A9
:100C3000EAF72095C695C695C370822BC23049F05D
:100C400058F4C13019F00E94850721CF0E947F0718
:100C50001ECF0E948B071BCF0E947C0718CF869562
:100C6000112311F08C2F8170882309F410CF4D2FA0
:100C7000429546954770440F440F8D2F8F70042E78
:100C800001C0880F0A94EAF72D2F2071D4FF07C006
:100C90002FE030E001C0220F4A95EAF72095C69573
:100CA000C695C370822BC23049F058F4C13019F098
:100CB0000E94D407ECCE0E94CE07E9CE0E94DA074C
:100CC000E6CE0E949707E3CECF70112329F08C2F38
:100CD0000E94A9078D2F38CF8D2F0E94D2048C2F10
:100CE0000E94B507D4CED23F41F160F4D03FB9F0B5
:100CF000D13F81F0112309F446C00111AECE8C2FF3
:100D00008F711FC0D33F01F1D43FA1F78091C90279
:100D100082FD24C08C2F8F71112311F312C0112377
:100D200041F0053008F0B3CE8C2F8F710E94C207BE
:100D3000AECE063008F0ABCEF7CF8C2F8F711111ED
:100D4000CFCF0E94A907A3CE112329F08C2F8F713A
:100D50000E94A0079CCE0E949C0799CE112349F0C7
:100D6000CF718C2F0E94A90763E08C2F0E944A0C40
:100D70008ECE81E00E94680C023008F488CE82E0BA
:100D80000E94680C84CE002359F0D93309F010CFAB
:100D90008FEF97EEE3E081509040E040E1F706CF1F
:100DA0008C2F8F719DCF0F931F93CF93DF93EC0107
:100DB000688179818A810E9488088C010E94E007FD
:100DC0000E947B07B801CE010E94D904DF91CF9128
:100DD0001F910F910895CF93DF93EC018B819C813C
:100DE000892B29F08881998189238F3F51F4DF91E4
:100DF000CF910895CE010E94D306CE010E940B032D
:100E0000F6CFCE010E9430038111F4CF0E94BD0BBA
:100E1000882369F38A81882351F38091C90282FF74
:100E2000E6CF82E00E94680CE2CF90E080E00E9472
:100E3000222190E080E00E9447210E94E40B0E9462
:100E4000050C0E94CB120E94AF1208950E94AC0BB9
:100E50000E94150708950E94D40B0E94260708954A
:100E600092959F70963091F058F4925F9F709230F7
:100E700058F4803F19F030F4883E30F481E0089552
:100E80009A5FF4CF843FD1F380E00895883EB0F3B9
:100E9000813FD1F7F3CFFC0183819481892B29F025
:100EA0008081918189238F3F11F480E008958081B2
:100EB00091810E947D080E9430070895A5E0B0E06E
:100EC000E4E6F7E00C94D72A2596E2E00C94F32AA6
:100ED000A6E0B0E0EEE6F7E00C94D72A2696E2E032
:100EE0000C94F32A08950E94720708950E947307D4
:100EF0008093E001089508950E94760708959091E7
:100F0000E001892B0E94760708959091E0018923E2
:100F10000E94760708959091E00189270E94760744
:100F200008950E94720708950E94910708950E94F3
:100F300094078093DF01089580E00E949707089549
:100F400091E001C0990F8A95EAF7892F0E949707CF
:100F5000089521E030E001C0220F8A95EAF78091E0
:100F6000DF01822B0E949707089521E030E001C045
:100F7000220F8A95EAF720958091DF0182230E9453
:100F80009707089521E030E001C0220F8A95EAF723
:100F90008091DF0182270E94970708959091DF01D9
:100FA000892B0E94970708959091DF0189230E9461
:100FB000970708959091DF0189270E949707089568
:100FC0000895262F277091E001C0990F2A95EAF71E
:100FD00023E0769567952A95E1F7FB01EE0FFF1F59
:100FE000E60FF71FE40FF51F50E040E0682F70E0B8
:100FF0008191DF0111979B01042E02C03695279540
:101000000A94E2F7217021952827292328272C9379
:101010004F5F5F4F4330510559F70895A82FA770D0
:1010200023E0969587952A95E1F7FC01EE0FFF1FC7
:10103000E80FF91FE60FF71F50E040E080E0219134
:1010400030E00A2E02C0369527950A94E2F7217007
:101050003327042E01C0220F0A94EAF7822B4F5F38
:101060005F4F4330510559F70895262F911109C05C
:10107000843038F4682F70E04CED51E0822F0E94EC
:10108000E107089591110AC0843030F46CED71E0ED
:1010900090E00E940E08982F892F089590E0FCCFD1
:1010A000CF92DF92FF920F931F93CF93DF936C0148
:1010B0000091DF018091E001082BC3E0D0E010E057
:1010C000FC2EC8010C2E02C0959587950A94E2F774
:1010D00080FD0CC02197A0F7F12C8F2DDF91CF91CF
:1010E0001F910F91FF90DF90CF900895B6018C2F44
:1010F0000E943C0F019771F3F0CFCF93DF93EC0187
:101100000E945008BE010E943C0FDF91CF910895CC
:101110001F93CF93DF93EB019091DB01992339F07B
:10112000CB010E947D08DF91CF911F910895882304
:1011300069F0CB010E945008182F682FCE010E9441
:101140003508BE01812F0E943C0FEDCFCB010E94DC
:101150004208182FF6CFE1E0F0E0DF0102C0AA0F4D
:10116000BB1F6A95E2F7BD01DF0102C0AA0FBB1FDA
:101170004A95E2F76A2B01C0EE0F2A95EAF7962FFF
:101180009823961302C08E2B0895E0958E23089520
:10119000242F462F682F8091DF010E94AB080E9408
:1011A000970708951F93CF93DF93C091E10116E055
:1011B0008091E2018C1304C0DF91CF911F910895BB
:1011C000D0E01C9FF0011D9FF00D1124ED51FE4F4A
:1011D0004081518162817381848195810E94680779
:1011E0002196C770E5CF409113025091140260918F
:1011F00015027091160280911702909118020E94B8
:10120000680708952091E1019091E20156E02913C9
:1012100002C080E0089530E0529FF001539FF00D2E
:101220001124ED51FE4F7181761306C07081781341
:1012300003C07281741304C02F5F3F4F2770E7CF44
:1012400081E008951F93CF93DF9380911802807FF0
:1012500009F04BC080911502882309F446C08091A3
:10126000E101C091E201409113025091140260919A
:10127000160270911702D42FD52316E0C817A9F1D2
:1012800090E061157105A9F1DF3F99F1189FF00118
:10129000199FF00D1124DF01AD51BE4F11962C9115
:1012A0001197251326C02C91241323C012962C913C
:1012B000129721111EC013962D913C91261B370BBE
:1012C000283C3105B0F4809118028F7080618093C2
:1012D0001802E851FE4F80818F708061808383E126
:1012E00092E00E94EB060E94D208DF91CF911F91FD
:1012F000089501968770C2CFA1E1B0E0E2E8F9E07D
:101300000C94CD2A8C0185E0F801DE011D96019038
:101310000D928A95E1F7F801F28083E1A82E82E030
:10132000B82E40911602509117024115510509F44B
:101330005AC19091130220911402892F82238F3F6A
:1013400009F451C1C080D18083809480E09015025F
:10135000B401641B750BEE2009F4F6C080911802ED
:10136000382F307F683C710508F0AFC031117AC06A
:10137000EF2C2D1116C09C1114C0F11012C08F70EB
:101380008061809318020E94F308C5010E94EB0659
:1013900080911802F80185838E2D6196ECE00C9403
:1013A000E92A81149104C9F18C2D8D218F3FA9F177
:1013B00081E08F2580FF05C04F2D6D2D8C2D0E9463
:1013C00002098114910459F18C2D8D218F3F39F13F
:1013D00081E08F25F82FF170BF2E80FF39C04F2D8F
:1013E0006D2D8C2D0E940209A82E811131C0CD8651
:1013F000DE868D859E850E947D08292F22952F707F
:10140000243078F49F702230A8F09923B9F0F801C5
:101410009581907F99F4EA2CBFCF80E0CBCF80E01C
:10142000D9CF2A5F2F70223068F0C8010E94EB06E6
:10143000AB2CF1CF992311F0882369F3805E8830BB
:1014400050F3F3CF803F38F3815F833070F7E3CF01
:10145000FF2009F4A1CF80911802816080931802C7
:10146000E12C9ACF2D1105C09C1103C0FF2009F477
:1014700086C0C8010E944B07882319F1FF2009F19B
:1014800080911802803270F0209113023091140282
:1014900038872F8319869B868A868C87CE0107968C
:1014A0000E94EB0686E0F801A3E1B2E001900D9204
:1014B0008A95E1F70E9422090E94F308EE24E39442
:1014C0006BCFC8010E94EB06F9CF311114C0782D03
:1014D000998A888AA6016F2D89890E945E0783E117
:1014E00092E00E94EB0686E0F50111928A95E9F7F9
:1014F0000E94F308B5CF2D110EC09C110CC0F11045
:101500000AC08583C8010E94EB0686E0F5011192AE
:101510008A95E9F741CFC8010E944B07882389F2D9
:10152000FF2079F280911802803208F4BBCF20911D
:101530001302309114023A8329831B829D828C828C
:101540008E83CE010196ACCF683C710508F03DC09A
:10155000EF2CFF2009F4B5CF2D1129C09C1127C015
:101560008091180280FD1AC0982F907FB9F0858372
:10157000903F31F0982F907F905F8F70892B8583FB
:10158000C8010E94EB0686E0F801A3E1B2E00190F9
:101590000D928A95E1F70E94F308FECE86E0F801ED
:1015A000A3E1B2E001900D928A95E1F7F5CEC80172
:1015B0000E944B07811176CF809118028160809341
:1015C0001802C8010E94EB06E7CE782D998A888A16
:1015D000A6016F2D89890E945E0786E0F5011192B0
:1015E0008A95E9F7D8CFFF2009F46BCFC8010E9494
:1015F0004B07E82E882309F464CF86E0F801A3E1C5
:10160000B2E001900D928A95E1F783E192E00E94A9
:101610001A040E942209BFCFACE0B0E0E2E1FBE097
:101620000C94D62A4F83588769877A878B879C8743
:10163000CE0107960E947C098823B1F08A859B859C
:10164000892B39F04F815885842F85238F3F09F0EE
:101650006CC016E08091E1019091E201891343C0D2
:101660002C96E3E00C94F22A86E0FE013796DE0128
:10167000119601900D928A95E1F78A859B85892BB9
:1016800041F38F81988589238F3F19F32091E201DF
:1016900030E0C9010196877099274091E101481710
:1016A000190671F40E942B071092E2011092E101D9
:1016B00086E0E3E1F2E0DF011D928A95E9F7C9CF08
:1016C00096E0929FD001939FB00D1124AD51BE4F73
:1016D000FE01319601900D929A95E1F78093E20117
:1016E0000E94D208B6CF819FC00111248D519E4F18
:1016F0000E947C09882309F4B3CFE091E1011E9F89
:10170000F0011124ED51FE4F4081518162817381BE
:10171000848195810E9468078091E10190E00196A3
:10172000877099278093E10195CF69857A858B85AC
:101730009C850E9468078DCF682F8091040190914D
:1017400005010E9400220895682F80910401909164
:1017500005010E940E2208958091040190910501D7
:101760000E941C2208958091390285958595859562
:101770000895809139028770089590913902977089
:1017800081E009F480E0089580915C0208959091D1
:101790005C02892B80935C020895809590915C0295
:1017A000982390935C02089510925C0208959091A2
:1017B0005B02892B80935B020895809590915B0278
:1017C000982390935B02089510925B020895809194
:1017D0003A02089508950E94EA0B08959091C90273
:1017E00092FF08C090913A02981721F080933A0234
:1017F0000E94EB0B089580913A02882329F0109201
:101800003A0280E00E94EB0B0895CF93DF93E091C2
:101810000401F091050180915C028083E091040154
:10182000F0910501808190915B02892B80839091DA
:101830003A02992381F0E0910401F0910501808141
:10184000892B808380910401909105010E946C2175
:1018500081110E94FB0BC0910401D091050140E26F
:1018600050E069E172E0CE010E94672B892B59F0AC
:1018700080E2FE01A9E1B2E001900D928A95E1F7C4
:10188000CE010E94FA20DF91CF91089508950E9421
:10189000460C08959091C90292FF11C098E0899F6B
:1018A00090011124622B609339020E94A907809154
:1018B00039028595859585950E94470C08950E946B
:1018C000A90708951092390280E00E94470C0895FC
:1018D000909139028095892380933902282F2770AF
:1018E00091F4282F082E000C330B9217130659F091
:1018F0009091C90292FF07C08595859585950E94B4
:10190000B5070E94620C08959091C90292FB2227AC
:1019100020F9281769F080FB92F99093C902809111
:10192000C8029091C9020E94CD0C82E00E94680C0E
:1019300008958091C90282FB882780F991E0892768
:101940000E94840C089581E00E94840C089580E038
:101950000E94840C08956FEF7FEF90E080E00E947A
:10196000AF2B089590E080E00E948B2B873E9E4F26
:1019700019F40E94B51A089580E0089582E090E07D
:101980000E947D2B089583E090E00E947D2B0895B6
:1019900084E090E00E948B2B0895BC0184E090E0ED
:1019A0000E94AF2B0895AB01BC018FE090E00E9434
:1019B000A32B0895AB01BC0183E190E00E94A32B0F
:1019C000089560E070E0CB010E94DA0C089560E0B9
:1019D00070E0CB010E94D30C0E94E10C089567EEE9
:1019E0007EEF90E080E00E94AF2B60E082E090E02C
:1019F0000E94912B60E083E090E00E94912B109276
:101A0000E00160E074E184E090E00E94AF2B60E0D0
:101A100086E090E00E94912B6FEF87E090E00E94BB
:101A2000912B40E050E0BA0188E090E00E94A32BA7
:101A300060E08DE090E00E94912B40E050E0BA0120
:101A400088E190E00E94A32B60E087E190E00E9493
:101A5000912B40E050E0BA018CE190E00E94A32B72
:101A600070E060E080E290E00E94AF2B40E050E048
:101A7000BA0188E190E00E94A32B80E00E94CE1A78
:101A80000E94FD1A0E94E70C08950E94EF0C089531
:101A9000682F8EE090E00E94912B0895A5E0B0E0C1
:101AA000E4E5FDE00C94D52A0E94D8228C018091B7
:101AB0005D0290915E0280179107A1F08FEF8983FC
:101AC0008A831B820E94D8228160782F9D838C8319
:101AD00049815A816B818D810E94E50310935E02DA
:101AE00000935D022596E4E00C94F12A0E94E42222
:101AF000609364027093650280936602909367021C
:101B0000609360027093610280936202909363021B
:101B10000895089508950E948A0D089508950E94D9
:101B20008E0D089581E0089586E290E10E94E32001
:101B30000E94890D0E948B0D08950E94920D0895B8
:101B40000E949D0D0895089508950E94A30D0E947E
:101B5000A40D08950E9445100E94B90308950E94A3
:101B6000CF220E940D1B0E94DB100E94AA0D0E9432
:101B70002D190E948F0D0895A5E0B0E0E2ECFDE084
:101B80000C94D22A0E94920D81110CC00E944E0D1D
:101B90000E947D190E94ED120E94CC032596E7E079
:101BA0000C94EE2A0E94E71010915F0280E00E94E0
:101BB0006810181759F38091680281FD0E946E1019
:101BC0000E94A00DD82E80E00E946810182F8091EE
:101BD0005F02181721F1E12EE82600E0FF24F394BC
:101BE0008E2D8F21B1F0DD20A1F009831A8291E0C2
:101BF000812F8F2109F490E09B830E94D82281607D
:101C0000782F9D838C8349815A816B818D810E94BD
:101C1000E5030F5FFF0C043019F710935F020E9479
:101C2000760DB6CF1F93CF93DF930E94410FEC0147
:101C3000C11580E5D807F0F5C11580E4D80708F094
:101C40009CC0C03ED10520F5CD3CD10508F082C036
:101C5000C83AD10578F4C53AD10508F073C0C1304F
:101C6000D10519F1209709F1C430D105F0F4D0E085
:101C7000C0E01BC0C13CD105D0F7C85AD0E0CC0FA2
:101C8000DD1FCB59DE4F0990D881C02DD4640DC023
:101C9000C11580E2D80708F0D1C0C11581E0D8078E
:101CA00008F05AC0C83ED10510F7CE01DF91CF91A0
:101CB0001F910895C03682E5D80718F5C03482E533
:101CC000D80708F06BC0C03282E5D80708F05FC0C3
:101CD000C11582E5D80708F497C02C2F26952695C4
:101CE00080E2289F900111248C2F8370C1E0D0E006
:101CF00002C0CC0FDD1F8A95E2F7C22BD32BDD6823
:101D0000D4CFC03A82E5D80760F4C03882E5D8075E
:101D100008F459C0CF71D0E0DC2FCC27C46FD06A53
:101D2000C4CFC03C82E5D80708F462C0C03E82E55B
:101D3000D80708F09CCFDC2FCC27CC27DF71C06FF1
:101D4000D06AB3CFC55AD0E0C556DE4FC881D0E0C7
:101D5000D064ABCFD065A9CF8D2F0E94E30F182F91
:101D6000CE0199270E94410FC12FD0E0DC2FCC2754
:101D7000CC27DF71C82BD92B98CFCE0199270E9491
:101D8000410FCC27DF70C82BD92BD06A8ECFCF71F3
:101D9000D0E0DC2FCC27C16FD06A87CF2C2F2695BF
:101DA0002695277080E2289F900111248C2F837044
:101DB000C1E0D0E002C0CC0FDD1F8A95E2F7C22B54
:101DC000D32BDC6872CF2C2F26952695277080E2C6
:101DD000289F900111248C2F8370C1E0D0E002C0B5
:101DE000CC0FDD1F8A95E2F7C22BD32BDA685DCFCB
:101DF0008C2F8F710E94E30FC82FD0E0DC2FCC27EF
:101E0000CC27DF71D06251CF8C2F8F710E94E30FEE
:101E100055E0D695C7955A95E1F7CF70D0E0DC2F05
:101E2000CC27282F30E084FF05C044E0220F331F69
:101E30004A95E1F7C22BD32BD06937CF8D2F8F7105
:101E40000E94E30F182FCE0199270E94410FC12F46
:101E5000D0E0DC2FCC27CC27DF71C82BD92BD2CFF9
:101E6000462F711106C0643020F460E00E94E01E2D
:101E7000089590E080E008950E94300F0E94120EB5
:101E8000089582389105B9F1B0F48133910509F4D0
:101E90007DC048F48932910509F46DC08A329105FC
:101EA00009F47BC008958533910509F45FC0893337
:101EB000910509F10895833E9105D9F138F4803EEA
:101EC000910529F1823E910579F10895863E9105AB
:101ED000D9F1873E910509F43EC0843E910541F554
:101EE0002091C90221FF24C08091C80284FD19C03D
:101EF00087EE90E008952091C802237009F05AC03F
:101F00002091C90223FF14C089E290E00895209136
:101F1000C80220FD38C03091C90230FF09C024FF3B
:101F200043C090E080E008952091C80222FDF7CFE1
:101F300008952091C80222FD3AC03091C90230FDB7
:101F400039C024FFF5CFEDCF2091C80223FFF0CF99
:101F500024FDE7CFCDCF2091C80223FD2EC03091C4
:101F6000C90231FFEECF84EE90E008952091C802BF
:101F700025FFDECFC9CF2091C80225FD21C02091C9
:101F8000C90223FFD5CF89E390E0D2CF2091C802C8
:101F900026FFCECF8AE290E008952091C80226FF66
:101FA000C7CF81E390E0089583EE90E0089582EE3C
:101FB00090E0089580EE90E0089586EE90E0089518
:101FC00085E390E008959091C80292FF06C0282F03
:101FD00028712830F9F4877F846093FF06C0282F8A
:101FE00028712831F1F4877E84612091C90220FF95
:101FF00006C0382F38713830D9F4877F816021FFCF
:1020000006C0282F28712831D1F4877E816194FD84
:10201000877E0895282F24712430F9F68B7F8860FD
:10202000DCCF282F2471243101F78B7E8861DDCF2E
:10203000382F3171313019F78E7F8860E0CF282F2B
:102040002171213121F78E7E8861E1CF80E00895F2
:102050000E94AB0C08950E94E7102FEF86E791E0F5
:10206000215080409040E1F700C000000E94E7103E
:1020700080E00E94681080FF04C00E9428100E9427
:10208000232308950E942B1008950E94B20C811101
:1020900002C00E94450D0E94BE0C809368020E94FF
:1020A000C80C9093C9028093C8020E9442100E94FB
:1020B000C30C0E947C078091DF010E949407089561
:1020C00008950E946010089508950E946410089574
:1020D000E82FF0E0E553FD4F80810895089580EAF0
:1020E0008A95F1F7089500C008950E946F10089531
:1020F000F894E82FE295EF70F0E031A1282F2F70CF
:1021000081E090E001C0880F2A95EAF7982F90951A
:10211000932391A392A1892B82A37894089584E9B3
:102120000E94781084EF0E94781085EF0E9478104A
:1021300086EF0E94781087EF0E94781008950F9321
:102140001F93CF93DF938C01C62FF894549A5C9819
:1021500078940E947310EEE9F1E081E0D0E0919173
:102160009F3F79F0A92FA295AF70B0E090962C9187
:1021700030E09F7002C0359527959A95E2F7982F29
:1021800020FD90E0D92B880F91E0E23AF90739F76A
:1021900084E90E94781061E0D11101C060E08C2FC9
:1021A0000E947510F801EC0FF11DD083DF91CF91E3
:1021B0001F910F9108950E948F101092CB021092E0
:1021C000CA0281E00E940C110E9461100895A1E0F2
:1021D000B0E0EDEEF0E10C94D62A198260E0CE0179
:1021E00001960E949F109091CA02898121E0981364
:1021F00001C020E098138093CA0241E06BEC72E0CA
:102200008AEC92E00E940D11182F0E946510812F18
:102210002196E3E00C94F22A0895CF92DF92EF9298
:10222000FF920F931F93CF936C017B01042F222306
:1022300049F081E080936B020E94D82290936A0259
:1022400080936902C0916B02C1110AC0C0E08C2F5B
:10225000CF911F910F91FF90EF90DF90CF90089555
:102260008091690290916A020E94F022059770F3B2
:1022700010E0A801B601C7010E94672B892B41F02D
:10228000A801B601C7010E94742B10926B02DFCF28
:10229000C0E0FBCF0E94BE240E94AF0D0E94CB2461
:1022A00008950E94D0240E94BC0D0E94EA24089543
:1022B0000E9471220E94A4240E94940D0E944A113F
:1022C0000E9451110E94A50DFBCF8091720280FFE8
:1022D0000DC060910B0170E0660F771F60387105CB
:1022E00070F56115710569F1862F089581FF07C0AA
:1022F00060910B0184E0689FB0011124EFCF6091E1
:102300000B0182FD0AC0809171028823A9F02091FF
:102310000A0160910B01821710F088E0ECCF869FD4
:10232000C001112433E0880F991F3A95E1F7622F1D
:1023300070E00E94842AD2CF68E070E0D5CF8FE7AA
:10234000089581E008958091720280FF0CC0609131
:10235000070170E07595679575956795611571052D
:1023600049F1862F089581FF06C06091070170E052
:1023700075956795F3CF6091070182FD0BC0909131
:1023800070029923A1F060910601809107019617D0
:1023900038F0682F70E06038710500F38FE708951A
:1023A000899FC001112470E00E94842AF4CF61E06B
:1023B00070E0D7CF81E008958D3C31F40E94651123
:1023C00081958093760208958E3C19F40E946511E0
:1023D000F8CF8F3C31F40E9465118195809375028E
:1023E0000895803D19F40E946511F8CF893D29F4C4
:1023F0000E94A3118093770208958A3D21F40E94E0
:10240000A3118195F7CF8B3D31F40E94A3118195E3
:102410008093780208958C3D19F40E94A311F8CF9F
:102420009FE2980F983070F4815D990B21E030E0C5
:1024300001C0220F8A95EAF780917402822B809363
:10244000740208958D3D31F4809172028160809311
:10245000720208958E3D21F4809172028260F7CF5E
:102460008F3DB9F7809172028460F1CF409175027F
:102470008D3C59F48091760287FF0DC01092760250
:1024800041110BC01092710208C08E3C81F4809102
:10249000760218169CF3442381F080917702909184
:1024A0007802892B09F05AC01092700208958F3C6F
:1024B00049F447FFF0CF10927502809176028111A6
:1024C000ECCFE0CF803D19F41416ACF3E4CF90913B
:1024D0007702893D29F41916F4F610927702DBCFC2
:1024E0008A3D19F497FFD7CFF8CF909178028B3DB2
:1024F00029F497FFD0CF10927802CDCF8C3D19F4FC
:102500001916CCF3C8CF9FE2980F983090F4815DF4
:10251000990B21E030E0B90102C0660F771F8A9560
:10252000E2F7CB0180959091740289238093740225
:10253000B2CF8D3D31F4809172028E7F8093720212
:10254000AACF8E3D21F4809172028D7FF7CF8F3D0F
:1025500009F0A1CF809172028B7FF0CF08950E9485
:10256000D8229C019091750280917602982B21F0DF
:1025700030936F0220936E029091770280917802DF
:10258000982B21F030936D0220936C0283E792E048
:102590000E941421089586E0E3E7F2E0DF011D9236
:1025A0008A95E9F7109271021092700210927202ED
:1025B0000895FC01828181110EC0838181110BC0BD
:1025C0008481811108C091E08581811101C090E072
:1025D000892F8170089581E0FCCFA6E0B0E0E3EFA1
:1025E000F2E10C94D62A86E0E3E7F2E0DE011196F0
:1025F00001900D928A95E1F7109275021092760281
:1026000010927702109278028B819C81892B89F03D
:1026100080916E0290916F020E94F022AC01909125
:1026200071029923C9F180910C018417150608F4F1
:1026300040C08D819E81892B91F080916C02909198
:102640006D020E94F022AC0190917002992309F46E
:1026500071C0809108018417150608F479C0BE0185
:102660006F5F7F4F83E792E00E942E22811105C0A9
:1026700083E792E00E94D91281110E94AF1286E096
:10268000FE013196A3E7B2E001900D928A95E1F741
:102690002696E3E00C94F22A20910D018AE0289F0F
:1026A000900111242417350720F69F5F9093710243
:1026B00002C09F3FD1F71B81112359F00E94651181
:1026C0009FEF11160CF491E0899F802D11248093C7
:1026D00075021C81112359F00E9465119FEF11169C
:1026E0000CF491E0899F802D112480937602309123
:1026F0007502332309F49DCF20917602222309F439
:1027000098CF45EB3403C0011124992359F09093DD
:10271000750245EB240390011124332339F03093E3
:10272000760287CF81E080937502F3CF81E08093BA
:1027300076027FCF209109018AE0289F9001112421
:102740002417350708F08BCF9F5F9093700202C06B
:102750009F3FD1F71D81112359F00E94A3119FEFD4
:1027600011160CF491E0899F802D1124809377023B
:102770001E81112359F00E94A3119FEF11160CF432
:1027800091E0899F802D1124809378023091770207
:10279000332309F464CF20917802222309F45FCF18
:1027A00045EB3403C0011124992359F0909377022B
:1027B00045EB240390011124332339F03093780240
:1027C0004ECF81E080937702F3CF81E0809378024F
:1027D00046CFEF92FF920F931F93CF93DF93EB01BE
:1027E000E82FD1110EC0442321F0F0E0E153FE4F59
:1027F000E4916E2F7E2F8E2FCDB7DEB7E6E00C94DE
:10280000EF2A0D2F10E0282F30E0442329F0215328
:102810003E4FF901249130E0F6E0CF9FC001112432
:10282000EFEFF0E0BF010E94702AAB018C2F90E027
:10283000880F991FA5E5A49FB001A59F700D1124D5
:10284000861B970B982F990F980FBF01601B710B78
:10285000629FD001639FB00D729FB00D11248B2F2A
:102860009D9FB0011124672F7727EF01C61BD70B5F
:10287000BE01629FE001639FD00D729FD00D1124B5
:102880007F01E91AF108E09EB001E19E700DF09E13
:10289000700D1124672F7727E61BF70BE29F80014D
:1028A000E39F100DF29F100D1124E12F722F423083
:1028B000510599F048F44115510569F04130510531
:1028C00081F0EB2F8D2F07C04430510569F080F067
:1028D00046305105B1F76E2F8FCFE22F7B2F812F1E
:1028E000FACFE22F7D2FF7CFEB2F822F712FF3CF6F
:1028F0007B2F822FED2FEFCF41E00E94E913089547
:1029000008950E947C140895CF93DF93762FE901F8
:10291000682F842F0E948114798368838A83DF91D2
:10292000CF9108958091CC02982F9E7F29F48170D9
:1029300082608093CC0208958634E8F381708464C9
:10294000F8CF88E090E00E94852B0895CF92DF9227
:10295000EF92FF926B017C010E949214B701A601D5
:1029600088E090E00E94A32BFF90EF90DF90CF9043
:1029700008956091CC027091CD028091CE02909129
:10298000CF020E94A6140895ECECF2E083E080836D
:1029900011828FEF828383831482608171818281AF
:1029A00093810E94A61408958091CC0280FF02C0FA
:1029B0008695089580E008958091CC0281700895F5
:1029C0009091D002933018F49F5F9093D0028823A7
:1029D00051F06091CC027091CD028091CE02909125
:1029E000CF020E94A614089581E00E94E014089589
:1029F0009091D002992319F091509093D00288239E
:102A000051F06091CC027091CD028091CE029091F4
:102A1000CF020E94A614089581E00E94F814089540
:102A20008091D00208958093D002662351F0609186
:102A3000CC027091CD028091CE029091CF020E9483
:102A4000A614089560E00E94131508958091CD02A8
:102A500008958091CE0208958091CF02089570E08C
:102A60000E94891A0895CF92DF92EF920F931F93DD
:102A7000CF93DF93CDB7DEB72C970FB6F894DEBFB8
:102A80000FBECDBF609111018091CC0280FF36C096
:102A9000EBECF1E09E012F5F3F4F8E01035F1F4F74
:102AA000C901A4914A2F50E0DA01AA0FBB1FA40F5D
:102AB000B51FAF52BD4FCD90DD90EC90D901CD92B6
:102AC000DD92ED929D013196A017B10751F720914B
:102AD0001001B3E02B9F800D911D11240E942F1532
:102AE0002C960FB6F894DEBF0FBECDBFDF91CF910D
:102AF0001F910F91EF90DF90CF9008958091120178
:102B00009091130123E0829FF0011124EF52FD4FB9
:102B1000891708F0BDCF1182108212828F5F339621
:102B2000F7CF9091CC0290FF0EC0909112012091AE
:102B3000130133E0939FF0011124EF52FD4F9217E0
:102B400018F00E94331508958183608342839F5F4C
:102B50003396F5CFA3E0B0E0E0EBF5E10C94D72A93
:102B60009091CC0290FF0AC09E012F5F3F4F0E94C0
:102B700084144B8169818A810E9491152396E2E039
:102B80000C94F32ACF93DF93EC01EC81F0E0EA534D
:102B9000FF4F4491ECECF2E0628181810E94AA1522
:102BA0008C818F5F8C83DF91CF910895CF93DF93DA
:102BB000EC01ECECF2E0438162818C810E94AA1569
:102BC0008C818F5F8C83DF91CF910895A3E0B0E07B
:102BD000ECEEF5E10C94D52A8C01809179028111FB
:102BE0000AC09E012F5F3F4F4FEF6FEF0E9484148A
:102BF0008A8180937902F8016481613069F0809163
:102C0000790240E0662361F040E0623011F44091C7
:102C1000790280E060E004C06091790240E080E0E9
:102C20000E949115F801848190E0019663E070E0C4
:102C30000E94842A84832396E4E00C94F12AA3E082
:102C4000B0E0E5E2F6E10C94D02A082FD62EE42E6F
:102C5000C22E9091CC0290FF29C0E92FE695AE2FAD
:102C6000B0E0AE55BE4F8C91809398029E7F92301B
:102C700009F59E012F5F3F4F802F0E9484144B81E6
:102C800069818A810E9491150093CD02D092CE0273
:102C9000E092CF02CC2051F06091CC027091CD0235
:102CA0008091CE029091CF020E94A6142396E9E073
:102CB0000C94EC2A823019F4E090CF02E5CF8630F4
:102CC00019F40091CD02E0CF8930D9F38231E1F6D9
:102CD000E2516E2F6170B62EE695F0E0EA53FE4F9A
:102CE0001491F12C60911401F61618F00E9433151E
:102CF000CBCFF19EC001112470E00E94702A802F7A
:102D0000B11014C0860F20911201622F6F0D77272A
:102D1000771F9B01220F331F260F371F2F523D4F66
:102D20004E2D6D2D0E948414F394DCCF861BEBCFC7
:102D3000ECECF2E09181282F438162818AE0890FD7
:102D40000E941F16089581E00E9498160895ECECE9
:102D5000F2E09181282F4381628186EF890F0E94E2
:102D60001F16089581E00E94A7160895ECECF2E08A
:102D7000628121E1620F08F46FEF282F4381818186
:102D80000E941F16089581E00E94B6160895ECEC8B
:102D9000F2E0628121E1621B08F460E0282F4381A8
:102DA00081810E941F16089581E00E94C716089530
:102DB000ECECF2E0438121E1420F08F44FEF282FC1
:102DC000628181810E941F16089581E00E94D816B9
:102DD0000895ECECF2E0438121E1421B08F440E06D
:102DE000282F628181810E941F16089581E00E9430
:102DF000E916089520E00E941F160895EF92FF92B1
:102E00001F93CF93DF93EC0110E0EE24EA94F12CB2
:102E100060911401161770F00E9433159A818C810D
:102E200090FF27C08F5F8C83DF91CF911F91FF9020
:102E3000EF90089520911201422F410F5527551F01
:102E4000CA019A01220F331F280F391F2F523D4FFD
:102E500070E0C7010E94842A962F8C814091CF0296
:102E60006091CE02199F800D11240E9484141F5F6F
:102E7000CFCF8150D8CF0F931F93CF93DF93809103
:102E800012019091130123E0829FF0011124EF526F
:102E9000FD4F891740F1C0E0D3E060911401C617DF
:102EA00040F10E94331520910E0180917A02820F29
:102EB00080937A0290910F01920F90930F0119164F
:102EC00054F4082E000C990B409114014150550BFD
:102ED000841795071CF0219520930E01DF91CF9167
:102EE0001F910F9108951182108212828F5F339685
:102EF000D0CF0C2F10E070E0C8010E94842A2091EE
:102F00001201820F482F50E020917A02022E000C0D
:102F1000330B02171307BCF020910F01022E000C97
:102F2000330B201731077CF08D9F900111242F5215
:102F30003D4F4091CF026091CE028091CD020E9420
:102F40008414CF5FAACFFA01EE0FFF1FE40FF51F25
:102F5000EF52FD4F118210821282F3CFB0E0A0E059
:102F6000E4EBF7E10C94C92AFC016280448081E023
:102F70008483E6ECF0E07490E5E4F1E0E491C09144
:102F8000CF02C695C158D0E0CC0FDD1FCD2FDD2775
:102F9000812C75E0972EAA24AA94B12C55245A941A
:102FA000E719EE2EF12C80911401881638F00E945A
:102FB0003315CDB7DEB7E0E10C94E52AC82CD12C4F
:102FC00082E0861568F09C9CF0019D9CF00D112418
:102FD000E558FD4F8091CD0280838091CE028183A0
:102FE000411023C09C9CF0019D9CF00D1124E558DC
:102FF000FD4F1382128220911201C601820F911D92
:103000009C01220F331F280F391F2F523D4F9C9CCC
:10301000F0019D9CF00D1124E558FD4F4281618126
:1030200080810E9484148394BECF9C9C80019D9CCF
:10303000100D112405581D4FF80183818823F1F0EC
:1030400081508383859DC0011124648170E00E94BA
:10305000702AFB01FF27EA53FF4F8491E82FE719FD
:10306000E59DC0011124B7010E94702A8091CF0212
:10307000689FB0011124F8017283BDCF0E944A2BD2
:10308000B5010E94842A8C179D070CF0B4CFF2E0A2
:10309000F61598F40E944A2BB5010E94842AF80183
:1030A00080830E944A2B2091CE022695622F70E0E9
:1030B0000E94842A280FF80121839C9CF0019D9C8A
:1030C000F00D1124E558FD4F12828091CF02893C0A
:1030D00058F088EC9C9CF0019D9CF00D1124E55863
:1030E000FD4F8483838387CF8431A0F784E1F2CFBF
:1030F000ECECF2E080818E7F80836081718182813F
:1031000093810E94A614109299020E94331508958B
:10311000ECECF2E080818E7F8083109299020E9415
:1031200033150895109299028091960281110AC078
:1031300081E0809396028091CC0281708093950209
:103140000E94881808956091CC02669570E04BE06B
:1031500050E085E191E00E945A2B892B19F481E01F
:10316000809399020E94D8229093900280938F02BC
:1031700008959091CC0290FF2BC09170811129C0CD
:1031800092609093CC02662351F06091CC027091D2
:10319000CD028091CE029091CF020E94A614609140
:1031A000CC02669570E04BE050E085E191E00E9432
:1031B0005A2B892BA9F01092990281E080939202F8
:1031C0004091CF026091CE028091CD020E94FA160A
:1031D0000895833210F09464D4CF880F982BD1CF08
:1031E0000E94A318EACF682F9091CC02969581E0B7
:1031F000890F833208F081E00E94B918089581E0B8
:103200000E94F3180895682F9091CC0296958FEF45
:10321000890F09F482E20E94B918089581E00E94A2
:103220000319089561E00E94B9180895ECECF2E0EA
:1032300080818160808386950E9412190895809113
:10324000CC0280FF03C00E94781808950E941619CE
:10325000089560E00E94B918089580919702811145
:103260002EC00E94B20C811104C00E94450D0E9424
:10327000C4140E94A1146093CC027093CD02809379
:10328000CE029093CF026E7F61F40E94C4140E941C
:10329000A1146093CC027093CD028093CE029093E0
:1032A000CF020E949214109299028091CC0280FF6A
:1032B00003C086950E94291981E0809397020895A2
:1032C000ECECF2E080818160808386950E94291970
:1032D00008958091CC0280FF03C00E948818089551
:1032E0000E946019089510929602809195028111B2
:1032F0000E9460190E94A31808950F931F93CF9303
:10330000DF93809199028823B9F180919802E0912E
:10331000CC02E695E81BE0939102823091F5F0E053
:10332000EE53FF4FE491CE2FD0E002EC15E18091F7
:103330009202882361F0109292020E94D822909308
:10334000900280938F0210929402109293020E9436
:10335000D822E0918F02F09190028E1B9F0B8F3F3D
:103360009F4750F4EC0FFD1FF0939002E0938F0203
:103370008FE892E0F8010995DF91CF911F910F91AD
:103380000895863049F4F0E0E154FF4FE491CE2FE8
:10339000D0E006ED15E1CBCF893051F4E695F0E0B1
:1033A000E454FF4FE491CE2FD0E00EEF16E1BFCFF3
:1033B0008F3049F4F0E0E754FF4FE491CE2FD0E096
:1033C0000BE317E1B4CF8C3139F4E7EBF0E0C591B2
:1033D000D49106EE15E1ABCFC0EDD7E000E814E1E3
:1033E0008D3109F0A4CF8E2F63E00E94642AE92F6B
:1033F000F0E0EC54FF4FE491CE2FD0E00EEA17E15D
:1034000096CFFA01811101C0FB0109950895CF9370
:10341000DF93C82FD62F0E94D4148C1748F00E9437
:10342000D4148D1728F40E94FF18DF91CF910895CE
:103430008C2F0E941219F9CF1F93CF93DF93EC01C9
:10344000FB011281111110C00E94C40B8272FE0197
:10345000E052F847E531F10508F059C0EC5EF34D54
:103460000C94BA2A0E941F19812FDF91CF911F91CE
:1034700008954EE059E16FEF78E10E94011AF4CF10
:103480004FEF58E16EE079E1F8CF42EB56E163EAA5
:1034900076E1F3CF43EA56E162EB76E1EECF44ED1D
:1034A00056E163EC76E1E9CF43EC56E164ED76E179
:1034B000E4CF46EF56E165EE76E1DFCF45EE56E12B
:1034C00066EF76E1DACF4CE055E164EF74E1D5CFF9
:1034D00044EF54E16CE075E1D0CF81E00E94121915
:1034E000C3CF65E082E00E94071ABECF68E086E0A5
:1034F000FACF6EE089E0F7CF61E18FE0F4CF6BE1C6
:1035000082E1F1CF8CE1EACF62E28DE1ECCF11E014
:10351000ABCF539A4BB1477F5BB15860EFB7F8948C
:103520009B01220F331F260F371F280F391F281723
:10353000390741F4EFBF8FE594E00197F1F700C040
:1035400000000895DC016D91CD0178E05BB90000C9
:1035500000C067FF4BB9660F000000C000C000C08C
:103560004BB900C07A9591F7E2CF82E290E00E94D9
:103570007D2B833289F483E290E00E947D2B88309A
:1035800059F484E290E00E947D2B91E0823209F0B0
:1035900090E0892F8170089580E0FCCFCF93C82FF1
:1035A0006FEF811163E282E290E00E94912B6FEF56
:1035B000C11168E083E290E00E94912B6FEFC1118E
:1035C00062E284E290E00E94912BCF9108950895E9
:1035D00085E290E00E947D2B682F70E090E080E013
:1035E00008950895CF93C62F0E94F11A6C2F85E29B
:1035F00090E00E94912BCF91089580E00E94CE1A16
:1036000060E070E0CB010E94F21A0E94761E0E94D8
:103610003B1F81E00E94CE1A08950E94E71A0E9483
:10362000E81A0E94F11A0E94B51A811102C00E9484
:10363000FD1A08950E94691908959C01FB01828179
:10364000882351F0A90157574038510530F4822F93
:103650000E944B1F80E0089581E008952FEFFC0148
:103660002083089580E00895CF93DF93EC01888153
:103670008230E9F028F4813071F0DF91CF91089524
:103680008330F9F08430C9F70E94261589830E949F
:1036900029158A83F2CF0E942C152FEF829FC0013B
:1036A00011246FEF70E00E94702A6983E6CF0E94B8
:1036B000DC14882321F00E94D4148983DECF80E0BB
:1036C000FCCF0E941015F9CFCF93DF93EC018881D6
:1036D000823021F128F4813069F0DF91CF91089593
:1036E000833041F18430C9F70E942C15482F6A813C
:1036F000898111C089812FEF829FC00111246FEF52
:1037000070E00E94702AD62F0E942915C82F0E94AF
:1037100026154D2F6C2F0E94FA16DFCF898181115B
:1037200003C00E948818D9CF0E94601989810E9425
:103730002919D3CF89810E942215CFCFFC019C018A
:103740002E5F3F4F9081983041F0993051F0973083
:1037500059F4C9010E94641B0895C9010E94341BD9
:1037600008950E94B91408958FEF80830895FC0195
:103770002181223019F40E949E1B08950E942E1B65
:103780000895EF92FF920F931F93CF93DF93EC0175
:10379000162F0E94321B811110C0E881E150E331E5
:1037A000B8F4F0E0E75DF34D0C94BA2A19828CE08E
:1037B0008A83612FCE010E949823CDB7DEB7E6E061
:1037C0000C94EF2A89818230C1F028F4813061F0B5
:1037D0008FEF8883EECF833099F08430C9F71A8257
:1037E0001B821C821D82E5CF0E94E4220E94C02A17
:1037F0006A837B838C839D83DCCF0E94E81AF6CF9B
:103800000A81802F90E07E0123E0E20EF11C892BDB
:1038100081F680E00E946810F70181937F0181E0CA
:1038200090E0053EA1F7C5CF8981823031F0853027
:1038300079F68A810E941A1BBCCF6A817B818C81B8
:103840009D810E94C02A0E94F21AB3CF4B816A81E7
:1038500089810E942B1E9827892798279D838C8316
:10386000A8CF2C813D813227232732274B816A81C3
:1038700089810E94551E9DCF0E94761E9ACF612F8E
:10388000CE010E94B71B95CF0E94EC1E898391CF79
:103890000E94EE1E9827892798279A83898389CFCB
:1038A0006B8170E089819A81AE014C5F5F4F9827F0
:1038B000892798270E94F11E7CCF6B8170E0898157
:1038C0009A81AE014C5F5F4F9827892798270E9405
:1038D000161F6FCF0E943B1F6CCF0E94291ED6CFB0
:1038E0006B8170E089819A81AE014C5F5F4F9827B0
:1038F000892798270E949A1E5CCF6B8170E089818E
:103900009A81AE014C5F5F4F9827892798270E94C4
:10391000BD1E4FCFCF93DF93EC01FB018281882343
:1039200009F4D2C09E0130572332310508F0B2C0ED
:103930000E94C80C9093C9028093C802FE01E15016
:10394000F047E232F10520F4E45CF34D0C94BA2A1E
:103950008091C80281608093C80293C08091C9029F
:1039600088608093C9028DC08091C8028260F3CFC5
:103970008091C8028460EFCF8091C8028860EBCF4D
:103980008091C9028160EDCF8091C9028260E9CF48
:103990008091C8028061DFCF8091C8028062DBCF56
:1039A0008091C8028064D7CF0E942B078091C80203
:1039B0008068D1CF8091C8028C60CDCF8091C90240
:1039C0008360CFCF8091C8028E7FC5CF8091C9021E
:1039D000877FC7CF8091C8028D7FBDCF8091C802FD
:1039E0008B7FB9CF8091C802877FB5CF8091C90204
:1039F0008E7FB7CF8091C9028D7FB3CF8091C802EF
:103A00008F7EA9CF8091C8028F7DA5CF8091C802FB
:103A10008F7BA1CF0E942B078091C8028F779BCF0D
:103A20008091C802837F97CF8091C9028C7F99CF04
:103A30008091C80282FB992790F921E0922790FBA0
:103A400082F990FB83F987CF8091C902982F9095D6
:103A500091708E7F892B90FB81F983CF9091C80262
:103A6000892F8F7B96FF806476CF0E942B079091E1
:103A7000C802892F97FB87F980586DCF81E00E949B
:103A8000480D8091C8029091C9020E94CD0C0E94FD
:103A90002B0780E0DF91CF91089580E0F0CF9091E7
:103AA000C802892F8F7E94FF806155CF9091C80204
:103AB000892F8E7F90FF81604ECF9091C902892F10
:103AC000877F93FF88604DCF81E0E4CFB0E0A0E036
:103AD000ECE6FDE10C94D22AE82FF0E0E153FD4F33
:103AE000D490282F26952695269530E0F901E159A6
:103AF000FC4F0491877010E0082E02C015950795C1
:103B00000A94E2F701701127F901E15AFC4FE490A1
:103B1000F12C082E02C0F594E7940A94E2F791E0A4
:103B2000E922FF24F901E15BFC4FC491D0E002C01F
:103B3000D595C7958A95E2F7C170DD270115110566
:103B400019F081EE0E942A04E114F10419F086EEC6
:103B50000E942A048D2D0E94C204E114F10419F080
:103B600086EE0E9477040115110519F081EE0E947E
:103B70007704CD2B19F08CE20E94C204CDB7DEB7DA
:103B8000E7E00C94EE2AEF92FF920F931F93CF93EE
:103B9000DF93EC01162F0AE08881882309F454C0D2
:103BA000813009F04EC08981813099F47E0122E094
:103BB000E20EF11C8A810E94C204E7012196812F46
:103BC000815050F3EFE9FFE03197F1F700C00000BA
:103BD000F7CF823041F47E0182E0E80EF11C8A8149
:103BE0000E942A04EACF833041F47E01E2E0EE0E27
:103BF000F11C8A810E947704E0CF843011F0219675
:103C0000DDCF2A81229690E080E0AE014F5F5F4FCA
:103C10002053330B2A30310548F0019778F2EFE951
:103C2000FFE03197F1F700C00000F7CF089FB00127
:103C3000099F700D1124C901860F971F2981EA0180
:103C4000E4CF0E94661DBACFCDB7DEB7E6E00C9494
:103C5000EF2A84E008950F931F93CF93DF9384306E
:103C600008F561111FC04430E8F428E0829F80010C
:103C7000112450E0440F551F040F151FC8018696EC
:103C80000E947D2BC82FD0E0DC2FCC27C80187965F
:103C90000E947D2B9E01282BC901DF91CF911F919E
:103CA0000F91089590E080E0F8CF1F93CF93DF93BA
:103CB000122F8430B8F4611115C0443098F498E0A4
:103CC000899FE001112450E0440F551FC40FD51FF8
:103CD000632FCE0186960E94912B612FCE0187968D
:103CE0000E94912BDF91CF911F9108951F93CF9345
:103CF000DF93D0E0C0E010E00E94B60221E030E0A7
:103D00008C171D0639F034F0412F60E08C2F0E9493
:103D1000B8029C01412F60E08C2F0E94551E1F5F4E
:103D2000143051F72196C430D10529F7DF91CF9196
:103D30001F910895EF92FF920F931F93CF93DF93FC
:103D4000EC018A017C01E60EF71ECE018696CE15A7
:103D5000DF0529F4CDB7DEB7E6E00C94EF2AC032D8
:103D6000D10540F40E947D2BF80180830F5F1F4F27
:103D70002196EBCFF8011082F9CFB0E0A0E0E3ECA0
:103D8000FEE10C94D12A7C016A018C01060F171FF9
:103D9000EC01CE018696C017D10729F4CDB7DEB766
:103DA000E8E00C94ED2AC032D10540F4FE01EE1992
:103DB000FF09EC0DFD1D60810E94912B2196E9CF3A
:103DC000843038F4611105C0443018F40E942B1E71
:103DD000089590E080E0089580E108958AEB93E0F3
:103DE0000895EF92FF920F931F93CF93DF93EC010F
:103DF0008A017C01E60EF71ECE018A5B9F4FCE152D
:103E0000DF0529F4CDB7DEB7E6E00C94EF2ACA3B14
:103E100023E0D20740F40E947D2BF80180830F5FDE
:103E20001F4F2196E9CFF8011082F9CFB0E0A0E052
:103E3000ECE1FFE10C94D12A7C016A018C01060FB0
:103E4000171FEC01CE018A5B9F4FC017D10729F4E1
:103E5000CDB7DEB7E8E00C94ED2ACA3B23E0D207E9
:103E600040F4FE01EE19FF09EC0DFD1D60810E947A
:103E7000912B2196E7CFCF93DF93C6E4D0E060E0AB
:103E8000CE010E94912B2196C11584E0D807B9F785
:103E9000DF91CF910895A8E0B0E0E1E5FFE10C9457
:103EA000CF2AF82E8FE08F1508F46EC08FEF93E0C5
:103EB0000E947D2B811168C006E410E0F11035C02E
:103EC000FE0131966F0188E011928A95E9F7780139
:103ED000FFEFEF1AFF0AC8010E947D2B89831A8227
:103EE000882309F451C08130D1F4580182E0A80E32
:103EF000B11CC7010E947D2B8A83882309F444C02A
:103F00009FEF980F9330F0F4780193E0E90EF11CE5
:103F1000C5010E947D2B8B838823B1F11C8260E058
:103F2000C6010E94C31D8701D2CF011594E0190775
:103F300059F1C8010E947D2B811101C0FA940F5FD5
:103F40001F4FBCCF7501843051F702E010E07501BE
:103F5000EFEFEE1AFE0AC5010E947D2BF601E00F7D
:103F6000F11F8083882381F08C3741F4E2E0F0E098
:103F7000EC0FFD1FE00FF11F1082D1CF0F5F1F4F1D
:103F800057010730110519F72896EAE00C94EB2A3F
:103F9000CF93DF93EB0186319C4711F50E94C40B50
:103FA0009A81992399F08A7A91E009F490E09093AC
:103FB0009A02811109C089E20E949C0B0E94050CA3
:103FC00080E0DF91CF91089585E3F6CF80919A024A
:103FD000811104C089E20E94A40BF0CF85E3FBCFDE
:103FE00081E0EFCF0F931F93CF93DF93C42FD22F96
:103FF000FC0182818823C9F040939D020E94D8224F
:1040000090939C0280939B0280E28C0F883040F456
:10401000C77081E001C0880FCA95EAF70E94CB04FF
:10402000DF91CF911F910F91089510919D0214136C
:1040300032C080919B0290919C020E94F022883CA9
:10404000910548F5C0E2CD0F1D17B9F080E2810F50
:10405000883040F4177081E001C0880F1A95EAF7A4
:104060000E94D204C83048F481E09D2F977001C0AF
:10407000880F9A95EAF70E94CB04802F0E94C20411
:10408000C83070F6D77081E001C0880FDA95EAF782
:104090000E94D204C5CF80E28C0F883008F6C7702A
:1040A00081E001C0880FCA95EAF7F2CF0F93DB01D8
:1040B00088519C4787309105A0F5FC01E25AF34DE9
:1040C0000C94BA2A06E221EE41EE6AE17CE7CD01CA
:1040D0000E94F21F80E00F91089507E225EE45EE61
:1040E0006BE17CE7F4CF06E221EE40EE68E17CE78D
:1040F000EECF07E225EE44EE69E17CE7E8CF06E289
:1041000021EE42EE6CE17CE7E2CF07E225EE46EEDF
:104110006DE17CE7DCCF08E221E045EE6EE17CE773
:10412000D6CF12968C91882319F010929D02D3CF8E
:1041300081E0D1CF1F93CF93DF9387372CE792078E
:1041400059F0C1E088379C47E1F4FB01C281CC23E0
:1041500071F10E94DD2006C0FB01C281CC23B1F0C9
:104160000E94DA200E94A9070E94E020D82F0E9416
:10417000DD20C82F0E94DA204D2F6C2F0E94C80826
:10418000C0E08C2FDF91CF911F9108950E94DA201B
:104190000E94B5070E94E020182F0E94DD20D82F32
:1041A0000E94DA20412F6D2F0E94C808EACF0E949A
:1041B000DD20EECF809122010895809121010895A4
:1041C0008091200108959093D5018093D4010895A2
:1041D0009093A3028093A2020895E091A202F0912D
:1041E000A302309729F00190F081E02D0995089500
:1041F00080E00895E091A202F091A302309799F037
:1042000020912B01222359F02091C80227FF07C0DB
:10421000DC012C9111962C93119726E02C930280AF
:10422000F381E02D09950895E091A202F091A30297
:10423000309739F022E0DC012C930480F581E02DE9
:1042400009950895A3E0B0E0E8E2F1E20C94D72AE2
:104250002091A0023091A10228173907A1F0909374
:10426000A1028093A002E091A202F091A3023097F4
:1042700051F023E029839B838A830680F781E02D18
:10428000CE01019609952396E2E00C94F32AA3E06F
:10429000B0E0EDE4F1E20C94D72A20919E02309137
:1042A0009F0228173907A1F090939F0280939E02E6
:1042B000E091A202F091A302309751F024E029830B
:1042C0009B838A830680F781E02DCE0101960995B4
:1042D0002396E2E00C94F32AFC01329680912B01A4
:1042E000882321F08091C8029EE187FF96E080E05C
:1042F000915008F4089521912223D1F38F5FF8CFD4
:10430000662301F120912B012223F1F02091C802B4
:1043100027FF1AC0462F4695469546954E3190F494
:10432000677021E030E002C0220F331F6A95E2F788
:10433000840F911DFC01828190E02823392381E0C4
:10434000232B69F480E00895FC01329608962191B0
:10435000261721F0E817F907D1F7F4CF81E0089587
:104360009C01FC0132969FEF80E04191461751F08D
:104370009F3F19F4411101C0982F8F5F8630A9F734
:104380009F3F09F40895290F311D97FD3A95F901D2
:1043900062830895FC01329608962191261303C08A
:1043A000DF0111971C92E817F907B9F70895E62F76
:1043B000E695E695E695EE3168F4E80FF92FF11DE4
:1043C000677021E030E001C0220F6A95EAF7828130
:1043D000822B82830895E62FE695E695E695EE31E9
:1043E00070F4E80FF92FF11D677021E030E001C093
:1043F000220F6A95EAF72095828128232283089567
:1044000020912B01222339F02091C80227FF03C0FD
:104410000E94D72108950E94B021089520912B0178
:10442000222339F02091C80227FF03C00E94EB210C
:1044300008950E94CA210895FC01329680912B01B3
:10444000882351F08091C80287FF06C08EE1DF010A
:104450001D928A95E9F7089586E0F9CF46E050E08D
:104460000E94672B21E0892B09F420E0822F089518
:1044700008950E9438220895811106C081E080933A
:10448000A4020E943922089582E0F9CF83E080934C
:10449000A4020E94392208950E943C22089581E0DE
:1044A0008093A4020E94392208950E944F22089509
:1044B000089508950E9459220895089508950E942C
:1044C000582208950E945D220E94E7100E945E22F9
:1044D00080E00E94681091E0811101C090E0892F76
:1044E000089585B7806885BF85B7806885BF0895C2
:1044F0001F921FB61F9211248F939F93AF93BF9368
:104500008091A502811113C08091DD029091DE029D
:10451000A091DF02B091E0024196A11DB11D8093F0
:10452000DD029093DE02A093DF02B093E002BF9120
:10453000AF919F918F911F901FBE1F9018958091F2
:10454000E502843031F10E9498031092A50288E1BF
:1045500090E020E40FB6F894A895809360000FBE19
:104560002093600083B7817F846083BF83B78160BD
:1045700083BF7894889583B78E7F83BF0FB6F894F6
:10458000A89580916000886180936000109260001F
:104590000FBE08950E942B070E949F03089582E09A
:1045A00084BD93E095BD9AEF97BD80936E0008950A
:1045B0002FB7F8948091DD029091DE02A091DF0286
:1045C000B091E0022FBF08952FB7F8946091DD02FB
:1045D0007091DE028091DF029091E0022FBF08957A
:1045E0009C014FB7F8948091DD029091DE02A0917A
:1045F000DF02B091E0024FBF821B930B08957894C5
:104600001F921FB61F9211248F939F93AF93BF9356
:104610008091DD029091DE02A091DF02B091E00274
:104620000196A11DB11D8093DD029093DE02A0933F
:10463000DF02B093E002BF91AF919F918F911F90E5
:104640001FBE1F90189587E797E790930108809306
:10465000000888E19AE00FB6F894A895809360006E
:104660000FBE90936000FFCF88E19AE00FB6F894F8
:10467000A895809360000FBE90936000FFCF80915B
:10468000C60208959B01BA019091E5029430E9F4C5
:104690008F708093E9009FEF8091E800915085FD35
:1046A00006C085ED8A95F1F700009111F5CF809154
:1046B000E80085FF0AC050E040E0C9010E948E2555
:1046C0008091E8008E778093E800089543E050E001
:1046D000BC0184E00E944223089546E050E0BC0102
:1046E00084E00E9442230895CF93DF93EC018091F0
:1046F0002B01811111C048E050E0BE0181E00E9411
:10470000422380E2FE01A6EAB2E001900D928A9572
:10471000E1F7DF91CF9108958091C80287FF05C02E
:1047200040E284E050E0BE01EACF48E081E0FACF09
:10473000603231F440E250E0BC0182E00E9442234A
:1047400008958091E402811109C00E946D270E94A2
:10475000CA278091E20084608093E200089510925D
:10476000E40208950E944F2208956091E10281E0E1
:10477000611101C080E00E94462208959091E502F7
:1047800081E0943009F080E06091E1020E944C22C7
:10479000089542E061EC81E00E94E92642E261EC8A
:1047A00084E00E94E92642E261EC82E00E94E92670
:1047B00042E260EC83E00E94E9269091E50281E00C
:1047C000943009F080E06091E1020E943C2208955B
:1047D0008091E702833009F463C030F48130E1F165
:1047E000823009F4A0C008958A3009F48CC08B305F
:1047F00009F471C0893009F052C08091E60281321B
:1048000009F04DC08091EA029091EB02009719F0F7
:10481000029709F044C08091E800877F8093E80008
:104820008091E80082FF37C09091F3008091F20000
:10483000029731F48091F100813011F0863021F43B
:104840008091F1008093C6028091E8008B7780937D
:10485000E8000E941D2723C08091E602813AF9F406
:104860008091E800877F8093E8008091EA02909130
:10487000EB02892B61F460E286EA92E070E00E942C
:104880002C268091E8008B778093E800089560E003
:1048900090E080E0F3CF8091E5028111C1CF0895CF
:1048A0008091E602813AD9F78091EA029091EB0279
:1048B000892BA9F78091E800877F8093E800809199
:1048C000E80080FFFCCF80912B018093F100809164
:1048D000E8008E77BCCF8091E602813201F78091AB
:1048E000EA029091EB02892BD1F68091E800877F54
:1048F0008093E8000E941D278091E80280932B019D
:104900000E942B0708958091E602813241F6809142
:10491000E800877F8093E8000E941D278091E902CC
:104920008093C70208958091E602813A09F0B7CFDB
:104930008091E800877F8093E8008091E80080FF05
:10494000FCCF8091C702C1CF84B7877F84BF0FB6E9
:10495000F894A8958091600088618093600010921F
:1049600060000FBE80E890E00FB6F894809361007D
:10497000909361000FBE0E94552208950E946D27FA
:104980000E94CA27E2EEF0E0808184608083789400
:104990000E94492A089583E291E00E94E820089548
:1049A0008091E502853031F48091E502853019F07F
:1049B0000E94CA2208950E949F228091E3028823C8
:1049C00099F30E946222882379F30E9478250E943D
:1049D0002B07EACFA0E2B0E0E0EFF4E20C94D72A94
:1049E0008091E502843009F583E08093E9008091AD
:1049F000E80082FF1AC08091E80090E085FF09C0BE
:104A000050E040E060E270E0CE0101960E94DD25BA
:104A100091E08091E8008B778093E800992329F05A
:104A200060E2CE0101960E94C11BA096E2E00C94C8
:104A3000F32A9A014091EC025091ED020E94212547
:104A40000895492F55274330510521F168F441302D
:104A5000510509F443C04230510509F444C090E0C7
:104A600080E050E040E026C04132510551F1423231
:104A70005105A9F76330710590F7FB01EE0FFF1F99
:104A8000E853FE4F408151816B537E4FFB01808183
:104A900090E010C099278130910581F0009729F0AE
:104AA0000297E9F6EFE7F3E002C0E5EAF3E084916C
:104AB00090E0AF01F901518340830895E1E9F3E00B
:104AC000F6CF6330710558F6660F771FFB01E2538E
:104AD000FE4F4081518189E090E0ECCF82E190E08F
:104AE00044E054E0E7CF8BE590E049EA53E0E2CFC1
:104AF00080E189BD82E189BD09B400FEFDCF8091CE
:104B0000D8008F7D8093D8008091E00082608093F0
:104B1000E0008091E00081FDFCCF0895AF92BF924C
:104B2000CF92DF92FF920F931F93CF93DF936C018D
:104B3000EB018A010E943C27F82E811123C0011548
:104B4000110539F0F80180819181C81BD90BC80E7D
:104B5000D91EB12CA12C2097A9F08091E80085FDE9
:104B600022C08091E8008E778093E800011511053E
:104B7000A1F0F80180819181A80EB91EB182A082B6
:104B800085E0F82E8F2DDF91CF911F910F91FF902F
:104B9000DF90CF90BF90AF9008950E943C2788236C
:104BA000D1F2F82EEFCFF60181916F018093F100E1
:104BB0002197FFEFAF1ABF0ACECFAF92BF92CF922D
:104BC000DF92FF920F931F93CF93DF936C01EB0162
:104BD0008A010E943C27F82E811123C0011511057E
:104BE00039F0F80180819181C81BD90BC80ED91EFC
:104BF000B12CA12C2097A9F08091E80085FD22C05E
:104C00008091E8008B778093E80001151105A1F0F1
:104C1000F80180819181A80EB91EB182A08285E041
:104C2000F82E8F2DDF91CF911F910F91FF90DF9084
:104C3000CF90BF90AF9008950E943C278823D1F277
:104C4000F82EEFCF8091F100F60181936F0121974B
:104C5000FFEFAF1ABF0ACECFFC018091EC0290911A
:104C6000ED0286179707A0F06115710529F4909160
:104C7000E8009E779093E80090E06115710551F48B
:104C8000911108C08091E80082FF34C080E008954F
:104C9000BC01F2CF8091E5028823C1F18530C1F1DA
:104CA0008091E80083FD30C08091E80082FDEACF6A
:104CB0008091E80080FFE1CF8091F3002091F20025
:104CC000382F6115710519F02830310558F091E041
:104CD0002830310509F090E02091E8002E772093EC
:104CE000E800CBCF81918093F100615071092F5F73
:104CF0003F4FE7CF8091E502882341F0853041F0B6
:104D00008091E80083FFBECF81E0089582E008959E
:104D100083E00895FC018091EC029091ED028617EA
:104D20009707A0F06115710529F48091E8008E774E
:104D30008093E80090E06115710551F4911108C06D
:104D40008091E80082FF35C080E00895BC01F2CF79
:104D50008091E5028823C9F18530C9F18091E8008E
:104D600083FD31C08091E80082FDEACF8091E800A8
:104D700080FFE1CF8091F3002091F200382F611580
:104D8000710519F02830310558F091E028303105CF
:104D900009F090E08091E8008E778093E800CBCF17
:104DA00084918093F1003196615071092F5F3F4FDC
:104DB000E6CF8091E502882341F0853041F0809173
:104DC000E80083FFBDCF81E0089582E0089583E08D
:104DD0000895982F973028F08F708093E90081E034
:104DE00008959093E900242F762F50E0981731F022
:104DF0007091EC002091ED005091F00021FD02C077
:104E00009F5FE8CF3091EB003E7F3093EB00309115
:104E1000ED003D7F3093ED003091EB003160309339
:104E2000EB007093EC002093ED005093F000209184
:104E3000EE0027FDE5CF80E008958091E60287FF30
:104E400013C08091E80082FF06C08091E8008B7754
:104E50008093E80004C08091E5028111F2CF0895AB
:104E60008091E5028823D9F38091E80080FFF8CF94
:104E70008091E8008E77ECCF2091E4003091E5003E
:104E800095E6A9012091EC00822F817020FF06C0D9
:104E90008091E80080FF06C080E008952091E8003E
:104EA00022FD1AC08091E502882389F0853089F0BF
:104EB0008091EB0085FD0FC02091E4003091E5006A
:104EC00042175307F9F29150E1F684E0089582E029
:104ED000089583E0089581E008950E94DC270E94F0
:104EE000E427E0EEF0E0808181608083E8EDF0E08F
:104EF00080818F77808319BCA7EDB0E08C918E7F85
:104F00008C9380818F7E80831092E40208950F93AA
:104F10001F93CF93DF930E94DC270E94E427C8ED04
:104F2000D0E088818F7788838881806888838881B2
:104F30008F7D888319BC1092E5021092E1021092D5
:104F4000E3021092E20200EE10E0F80180818B7F14
:104F5000808388818160888342E060E080E00E94F5
:104F6000E926E1EEF0E080818E7F8083E2EEF0E0E2
:104F7000808181608083808188608083F801808166
:104F80008E7F8083888180618883DF91CF911F919C
:104F90000F910895E8EDF0E080818F7E8083E7ED4A
:104FA000F0E080818160808384E082BF81E0809333
:104FB000E4020E9487270895E8EDF0E080818E7F6B
:104FC00080831092E20008951092DA001092E100BE
:104FD00008951F920F920FB60F9211242F933F93B3
:104FE0004F935F936F937F938F939F93AF93BF93F1
:104FF000EF93FF938091E10082FF0BC08091E2006C
:1050000082FF07C08091E1008B7F8093E1000E94C6
:10501000482A8091DA0080FF19C08091D80080FF73
:1050200015C08091DA008E7F8093DA008091D900DC
:1050300080FF96C080E189BD82E189BD09B400FE90
:10504000FDCF81E08093E5020E94A1238091E100E1
:1050500080FF19C08091E20080FF15C08091E200BE
:105060008E7F8093E2008091E20080618093E20075
:105070008091D80080628093D80019BC85E080932D
:10508000E5020E94B5238091E10084FF2BC080914E
:10509000E20084FF27C080E189BD82E189BD89B536
:1050A000982F917080FFFBCF8091D8008F7D8093E7
:1050B000D8008091E1008F7E8093E1008091E20032
:1050C0008F7E8093E2008091E20081608093E20015
:1050D0008091E102882309F449C084E08093E502CD
:1050E0000E94BE238091E10083FF29C08091E200ED
:1050F00083FF25C08091E100877F8093E10082E0FB
:105100008093E5021092E1028091E1008E7F80930E
:10511000E1008091E2008E7F8093E2008091E200C6
:1051200080618093E20042E060E080E00E94E92636
:105130008091F00088608093F0000E94B223FF917C
:10514000EF91BF91AF919F918F917F916F915F91FF
:105150004F913F912F910F900FBE0F901F90189578
:1051600019BC1092E5020E94AF2370CF8091E3003A
:1051700087FD93E09093E502B3CF1F920F920FB695
:105180000F9211242F933F934F935F936F937F93CD
:105190008F939F93AF93BF93CF93DF93EF93FF933F
:1051A000D091E900DF708091EC00C82FC17080FDC4
:1051B000C0E81092E9008091F000877F8093F000B2
:1051C00078940E9401291092E9008091F000886093
:1051D0008093F000CD2BCF70C093E900FF91EF9149
:1051E000DF91CF91BF91AF919F918F917F916F91FF
:1051F0005F914F913F912F910F900FBE0F901F9095
:105200001895AAE2B0E0E7E0F9E20C94D62A86EE1F
:1052100092E02091F100FC012193CF01F2E08E3E5B
:105220009F07B9F70E94E8238091E80083FF1EC121
:105230008091E6029091E7029A3008F017C1E92FB9
:10524000F0E0EB59F34D0C94BA2A803899F082388B
:1052500009F00CC18091EA028F70873008F006C116
:105260008093E9008091EB0085FB882780F91092FC
:10527000E90006C08091E2029091E3029111826000
:105280009091E800977F9093E8008093F10010924E
:10529000F1008091E8008E77E5C0882309F4D3C03F
:1052A000823009F0E3C08091E8028111D6C080917C
:1052B000EA028F702FEF280F263008F0D7C08093B6
:1052C000E9002091EB0020FFC8C0933031F48091B9
:1052D000EB0080628093EB00C0C09091EB00906186
:1052E0009093EB0021E030E001C0220F8A95EAF7AD
:1052F0002093EA001092EA008091EB008860EACFE8
:105300008111B4C01091E8021F778091E30080788A
:10531000812B8093E3008091E800877F8093E800F1
:105320000E941D278091E80080FFFCCF8091E30060
:1053300080688093E30082E0111183E08093E502AE
:1053400095C08058823008F091C08091E802909119
:10535000E9028C3D23E09207A1F583E08A838AE28B
:1053600089834FB7F894DE01139620E03EE051E2C6
:10537000E32FF0E050935700E49120FF03C0E29543
:10538000EF703F5FEF708E2F90E0EA30C0F0C7966D
:105390008D939D932F5F243159F74FBF8091E80083
:1053A000877F8093E8006AE270E0CE0101960E9458
:1053B0002C268091E8008B778093E80057C0C09638
:1053C000E7CF6091EA027091EB02AE014F5F5F4F51
:1053D0000E941925BC01892B09F448C09091E8006E
:1053E000977F9093E80089819A810E948A26E1CF75
:1053F0008038E1F58091E800877F8093E800809114
:10540000E1028093F10045CF811130C09091E80214
:10541000923060F58091E800877F8093E800909358
:10542000E1020E941D278091E102882311F084E0AF
:1054300005C08091E30087FDFACF81E08093E5020B
:105440000E94C92313C08091E802813079F481E081
:10545000933009F080E08093E3021092E90080919C
:10546000E800877F8093E8000E941D278091E80074
:1054700083FF0AC08091E800877F8093E8008091D5
:10548000EB0080628093EB00AA96E3E00C94F22A92
:105490000895CF938091E5028823A1F0C091E9009F
:1054A000CF709091EC00892F817090FD80E8C82B1F
:1054B0001092E9008091E80083FD0E940129CF70DD
:1054C000C093E900CF910895991B79E004C0991F1A
:1054D000961708F0961B881F7A95C9F7809508954E
:1054E000AA1BBB1B51E107C0AA1FBB1FA617B7070A
:1054F00010F0A61BB70B881F991F5A95A9F7809526
:105500009095BC01CD01089597FB072E16F40094E9
:1055100007D077FD09D00E94702A07FC05D03EF421
:10552000909581959F4F0895709561957F4F08954F
:10553000A1E21A2EAA1BBB1BFD010DC0AA1FBB1F97
:10554000EE1FFF1FA217B307E407F50720F0A21B09
:10555000B30BE40BF50B661F771F881F991F1A9476
:1055600069F760957095809590959B01AC01BD01A0
:10557000CF010895EE0FFF1F0590F491E02D0994DF
:1055800069279627692778278727782708952F92F4
:105590003F924F925F926F927F928F929F92AF92C3
:1055A000BF92CF92DF92EF92FF920F931F93CF9310
:1055B000DF93CDB7DEB7CA1BDB0B0FB6F894DEBFA7
:1055C0000FBECDBF09942A88398848885F846E84CD
:1055D0007D848C849B84AA84B984C884DF80EE8017
:1055E000FD800C811B81AA81B981CE0FD11D0FB620
:1055F000F894DEBF0FBECDBFED0108958F929F924C
:10560000AF92BF92CF92DF92EF92FF92CF93DF9350
:10561000EC01688179818A819B8161157105810521
:10562000910521F464E279ED8BE597E02DE133EF0C
:1056300041E050E00E94C52B49015A019B01AC0199
:10564000A7EAB1E40E94E42B6B017C01ACEEB4EF5D
:10565000A50194010E94F22BDC01CB018C0D9D1D54
:10566000AE1DBF1DB7FF03C00197A109B0488883D5
:105670009983AA83BB839F77DF91CF91FF90EF90AF
:10568000DF90CF90BF90AF909F908F9008950E9431
:10569000FE2A089580E091E00E94FE2A0895B0E07D
:1056A000A0E08093000190930101A0930201B093C8
:1056B00003010895FC014150504030F0019006165E
:1056C000D1F73197CF010895882799270895FB01D5
:1056D000DC0104C08D910190801921F441505040AB
:1056E000C8F7881B990B0895FB01DC0102C00190EB
:1056F0000D9241505040D8F70895F999FECF92BDD0
:1057000081BDF89A992780B50895A6E1B0E044E0FC
:1057100050E00C94B72BA8E1B0E042E050E00C94CC
:10572000B72B262FF999FECF92BD81BDF89A01972C
:1057300000B4021639F01FBA20BD0FB6F894FA9AD9
:10574000F99A0FBE08950396272F0E94922B0E946C
:10575000912B252F0E94922B242F0C94922B019693
:10576000272F0E94922B0C94912BDC01CB01FC0182
:10577000F999FECF06C0F2BDE1BDF89A319600B4AA
:105780000D9241505040B8F70895052E97FB1EF436
:1057900000940E94DC2B57FD07D00E94982A07FC3A
:1057A00003D04EF40C94DC2B509540953095219508
:1057B0003F4F4F4F5F4F089590958095709561953D
:1057C0007F4F8F4F9F4F08950E94F72BA59F900DFD
:1057D000B49F900DA49F800D911D11240895B7FFD3
:1057E0000C94E42B0E94E42B821B930B0895A29F40
:1057F000B001B39FC001A39F700D811D1124911DA5
:10580000B29F700D811D1124911D0895F894FFCF52
:105810001805180569056905DC05F80547054705FC
:10582000FD05640673067306321A391A401A451AC2
:105830004A1A4F1A541A591A5E1A631A681A6D1ABC
:10584000711A761A791A341A7C1A341A7F1A821A43
:10585000841AD61BE21B141C261C311C3C1C3F1C4A
:105860003F1C3F1CE81BE81B441C481C501C5D1CD3
:105870006A1C6D1C701C7D1CE21C561DEA1CB41CAD
:10588000B81CEE1CBC1CF21CFE1CC81C4F1DCC1C02
:10589000021DD01C061D2E1DD41C0A1D351DDA1C30
:1058A000101D181DC01CF61CC41CFA1CDE1C141D87
:1058B000241D3E1D4D1DAE1CE61C5D1D7320792070
:1058C00062206D207F2085208B2025294D29362AB6
:0E58D0004D29362A8029A129362AF829042AD2
:1058DE00010000003B02280850011E0A14010102BB
:1058EE0000040004040112131415161718191A1BBC
:1058FE000302013F2374236D23662301E200E900B6
:10590E00EA00B500B600B700CD008301CC008A01D5
:10591E00920194012102230224022502260227026B
:10592E002A02B300B4006F0070009F01CB019F02EA
:10593E00A002818283E200E900EA00B500B600B75A
:10594E0000CD008301CC008A019201940121022333
:10595E000224022502260227022A02B300B4006F97
:10596E000070009F01CB019F02A002818283F4F59B
:10597E00F6F70001020202020606060909090909E4
:10598E00090F0F0F121212121212121212121C1DE6
:10599E001D1D1D1D1D4022B6EE0416043804BB034A
:0459AE00D403F40327
:00000001FF
